:020000040000FA
:100000000C9462000C948A000C948A000C948A0070
:100010000C948A000C948A000C948A000C948A0038
:100020000C948A000C948A000C948A000C948A0028
:100030000C948A000C948A000C948A000C948A0018
:100040000C94B0040C948A000C9420050C94FA04CF
:100050000C948A000C948A000C948A000C948A00F8
:100060000C948A000C948A000000000024002700F1
:100070002A0000000000250028002B0000000000DE
:1000800023002600290004040404040404040202DA
:100090000202020203030303030301020408102007
:1000A0004080010204081020010204081020000012
:1000B0000008000201000003040700000000000027
:1000C0000000520511241FBECFEFD8E0DEBFCDBF28
:1000D00011E0A0E0B1E0ECE4F7E102C005900D9280
:1000E000A438B107D9F722E0A4E8B1E001C01D921D
:1000F000AC36B207E1F710E0C2E6D0E004C02197C9
:10010000FE010E94930BC136D107C9F70E949D05DD
:100110000C94A40B0C940000833081F028F48130FF
:1001200099F08230A9F008958730A9F08830C9F09D
:100130008430B1F4809180008F7D03C08091800075
:100140008F7780938000089584B58F7784BD08955C
:1001500084B58F7DFBCF8091B0008F778093B00006
:1001600008958091B0008F7DF9CFCF93DF93282F32
:1001700030E0F901E255FF4F8491F901E656FF4F57
:10018000D491F901EA57FF4FC491CC23A1F081111A
:100190000E948C00EC2FF0E0EE0FFF1FE458FF4FA1
:1001A000A591B491EC91ED2381E090E009F480E019
:1001B000DF91CF91089580E090E0FACF1F93CF9325
:1001C000DF93282F30E0F901E255FF4F8491F901C8
:1001D000E656FF4FD491F901EA57FF4FC491CC2363
:1001E000A9F0162F81110E948C00EC2FF0E0EE0F89
:1001F000FF1FEE58FF4FA591B4918FB7F894EC9183
:10020000111108C0D095DE23DC938FBFDF91CF9111
:100210001F910895DE2BF8CFCF93DF9390E0FC0180
:10022000E656FF4F24918A579F4FFC018491882303
:10023000D1F090E0880F991FFC01E859FF4FA5917C
:10024000B491FC01EE58FF4FC591D491623071F426
:100250009FB7F8943C91822F809583238C93E881FB
:100260002E2B28839FBFDF91CF9108958FB7F894ED
:10027000EC912E2B2C938FBFF6CFEF92FF920F9322
:100280001F93CF93DF937C01DC01ED91FC91D6812C
:10029000158180819181DC01ED91FC910280F381D7
:1002A000E02D0995C82F111102C0DF3F51F0D11B7D
:1002B000DC9FC00111246FEF70E00E94460BC12F3C
:1002C000C60FF701E080F180D70114968C9182FD72
:1002D000C095F7018281811108C061E083810E948D
:1002E0000C0181E0D70112968C930C2F10E0F701DE
:1002F000D38161E08D2F0E940C010115110551F48D
:1003000060E08D2FDF91CF911F910F91FF90EF90C3
:100310000C94DE000F3F110511F461E0F2CFED2FD8
:10032000F0E0E255FF4FE491E33049F140F4E13071
:10033000B1F0E230F9F0003811057CF7E1CFE73099
:1003400041F1E83071F1E430B1F7809180008062D2
:100350008093800010938B0000938A0004C084B5C2
:10036000806884BDC7BDDF91CF911F910F91FF9031
:10037000EF90089584B5806284BDC8BDF4CF8091AC
:10038000800080688093800010938900009388002B
:10039000EACF8091B00080688093B000C093B30032
:1003A000E2CF8091B00080628093B000C093B4002F
:1003B000DACF806480937C0080917A00806480939F
:1003C0007A0080917A0086FDFCCF80917800909130
:1003D000790008953FB7F8948091AE019091AF01F4
:1003E000A091B001B091B10126B5A89B05C02F3FE7
:1003F00019F00196A11DB11D3FBFBA2FA92F982F4B
:100400008827BC01CD01620F711D811D911D42E045
:10041000660F771F881F991F4A95D1F708958F920D
:100420009F92AF92BF92CF92DF92EF92FF924B01D9
:100430005C010E94EA016B017C010E94EA016C19D7
:100440007D098E099F09683E734081059105A8F3D7
:1004500021E0821A9108A108B10888EEC80E83E055
:10046000D81EE11CF11C81149104A104B10429F7E8
:10047000FF90EF90DF90CF90BF90AF909F908F90C4
:100480000895AF92BF92CF92DF92EF92FF920F93B7
:100490001F93CF93DF936C017B018B01040F151F1A
:1004A000EB015E01AE18BF08C017D10759F0699182
:1004B000D601ED91FC910190F081E02DC6010995E6
:1004C000892B79F7C501DF91CF911F910F91FF9093
:1004D000EF90DF90CF90BF90AF900895FC01538DC7
:1004E000448D252F30E0842F90E0821B930B54170E
:1004F00010F0CF96089501970895FC01918D828D9B
:10050000981761F0A28DAE0FBF2FB11D5D968C9133
:10051000928D9F5F9F73928F90E008958FEF9FEF72
:100520000895FC01918D828D981731F0828DE80F2E
:10053000F11D858D90E008958FEF9FEF0895FC01E8
:10054000918D228D892F90E0805C9F4F821B9109B5
:100550008F739927089582EB91E00E949F0221E01A
:10056000892B09F420E0822F089580E090E0892B08
:1005700029F00E94AB0281110C9400000895FC0147
:10058000A48DA80FB92FB11DA35ABF4F2C91848DF4
:1005900090E001968F739927848FA689B7892C9351
:1005A000A089B1898C91837080648C93938D848DA4
:1005B000981306C00288F389E02D80818F7D8083A7
:1005C0000895EF92FF920F931F93CF93DF93EC0167
:1005D00081E0888F9B8D8C8D98131AC0E889F989EA
:1005E000808185FF15C09FB7F894EE89FF896083ED
:1005F000E889F98980818370806480839FBF81E06E
:1006000090E0DF91CF911F910F91FF90EF900895AF
:10061000F62E0B8D10E00F5F1F4F0F731127E02E8A
:100620008C8D8E110CC00FB607FCFACFE889F989C2
:10063000808185FFF5CFCE010E94BF02F1CFEB8D07
:10064000EC0FFD2FF11DE35AFF4FF0829FB7F89496
:100650000B8FEA89FB8980818062CFCFCF93DF93B4
:10066000EC01888D8823B9F0AA89BB89E889F989CA
:100670008C9185FD03C0808186FD0DC00FB607FCFF
:10068000F7CF8C9185FFF2CF808185FFEDCFCE0132
:100690000E94BF02E9CFDF91CF910895CF92DF9200
:1006A000EF92FF920F931F93CF93DF939A0150E045
:1006B00040E06B017C01EFEFCE1ADE0AEE0AFE0A83
:1006C000C216D306E406F50608F047C0982F872F18
:1006D000762F66270E945A0BDA01C9019927AA27AB
:1006E000BB276C017D01F5E0F694E794D794C7949D
:1006F000FA95D1F7F601E95FFE4FE0816FEFC61A78
:10070000D60AE60AF60AE601C95FDE4F68816E1B6B
:10071000770B89019A01007E1127222733276C016C
:100720007D01C01AD10AE20AF30AA7019601DB0192
:100730000E948B0BDC01CB01C5E0B695A795979580
:100740008795CA95D1F78E0FDF91CF911F910F91A9
:10075000FF90EF90DF90CF9008958FEFF5CF21E0DD
:1007600030E0082E01C0220F0A94EAF720959091FC
:10077000A401292301C0660F8A95EAF7262B20934E
:10078000A4010895CF92DF92EF92FF920F931F93EF
:10079000CF93DF93EC016A017B014A815B81CA013F
:1007A000B0E0A0E0C816D906EA06FB06E8F4CB01E3
:1007B000B6010E944E0369852885211102C06F3F52
:1007C00051F0621B689FC00111246FEF70E00E941E
:1007D000460B822F860FDF91CF911F910F91FF90D3
:1007E000EF90DF90CF9008958C819D81480F591F25
:1007F00070E060E08FEFC416D506E606F706D8F283
:100800000E811F81E881F9810190F081E02DCE01F8
:100810000995B0E0A0E0BC01CD016C197D098E09FD
:100820009F09A801C6CFFC01228133818481958173
:10083000280F391F86819781820F931F0895DC014D
:10084000FB0184E291E09183808312968D919C91CB
:1008500013979383828314968D919C91159795831A
:10086000848316968D919C9117979783868318960B
:100870008C911897808719968C918187CB01089568
:10088000FC0182810895FC01838194810895FB011C
:100890002EE231E031832083DC0112962C911297F5
:1008A000228313968D919C9194838383CB01089529
:1008B000FC0101900020E9F73197AF01481B590B6B
:1008C000BC0182EB91E00C9441028F929F92AF9217
:1008D000BF920F931F93CF93DF93CDB7DEB7A1974E
:1008E0000FB6F894DEBF0FBECDBF19A2423008F498
:1008F0004AE08E010F5D1F4F842E912CB12CA12C4C
:10090000A50194010E945A0BE62FB901CA01EA30F1
:10091000F4F4E05DD801EE938D01232B242B252BDD
:1009200079F790E080E0109719F0CD010E9458040B
:10093000A1960FB6F894DEBF0FBECDBFDF91CF9169
:100940001F910F91BF90AF909F908F900895E95C99
:10095000E1CFBC01990F880B990B4AE00C94650418
:100960001F920F920FB60F9211242F933F938F93E4
:100970009F93AF93BF938091AA019091AB01A091F7
:10098000AC01B091AD013091A90123E0230F2D37C7
:1009900058F50196A11DB11D2093A9018093AA01CC
:1009A0009093AB01A093AC01B093AD018091AE01E7
:1009B0009091AF01A091B001B091B1010196A11D3C
:1009C000B11D8093AE019093AF01A093B001B0939D
:1009D000B101BF91AF919F918F913F912F910F9056
:1009E0000FBE0F901F90189526E8230F0296A11DA9
:1009F000B11DD2CF1F920F920FB60F9211242F93D9
:100A00003F934F935F936F937F938F939F93AF9396
:100A1000BF93EF93FF9382EB91E00E94BF02FF919F
:100A2000EF91BF91AF919F918F917F916F915F9166
:100A30004F913F912F910F900FBE0F901F901895DF
:100A40001F920F920FB60F9211242F938F939F93A3
:100A5000EF93FF93E091C201F091C3018081E09197
:100A6000C801F091C90182FD1BC090818091CB012A
:100A70008F5F8F732091CC01821741F0E091CB0101
:100A8000F0E0EE54FE4F958F8093CB01FF91EF91F4
:100A90009F918F912F910F900FBE0F901F901895DF
:100AA0008081F4CFE2EBF1E01382128288EE93E0D2
:100AB000A0E0B0E084839583A683B78388E391E0C8
:100AC0009183808385EC90E09587848784EC90E027
:100AD0009787868780EC90E0918B808B81EC90E00B
:100AE000938B828B82EC90E0958B848B86EC90E0EC
:100AF000978B868B118E128E138E148EEFE4F2E09C
:100B000011821082148A158A168A178A108E128E04
:100B1000118E148E138EA3E5B2E08C918C7F8160D0
:100B20008B7F8C9315828FEF86838FEF9FEF938B54
:100B3000828B128283E083830895CF93DF9300D06A
:100B4000CDB7DEB7789484B5826084BD84B581600A
:100B500084BD85B5826085BD85B5816085BD809188
:100B60006E00816080936E00109281008091810000
:100B700082608093810080918100816080938100F8
:100B8000809180008160809380008091B1008460BA
:100B90008093B1008091B00081608093B00080911B
:100BA0007A00846080937A0080917A0082608093DA
:100BB0007A0080917A00816080937A0080917A0037
:100BC000806880937A001092C10061E084E00E9406
:100BD0000C0161E087E00E940C0161E088E00E9466
:100BE0000C0162E08BE00E940C0162E08CE00E944C
:100BF0000C0161E085E00E940C0161E086E00E944A
:100C00000C0161E089E00E940C0161E083E00E9438
:100C10000C01E091C201F091C30182E08083E09178
:100C2000BE01F091BF011082E091C001F091C101BD
:100C30008FEC80831092CA01E091C601F091C70148
:100C400086E08083E091C401F091C50180818061DC
:100C50008083E091C401F091C50180818860808328
:100C6000E091C401F091C501808180688083E091AA
:100C7000C401F091C50180818F7D80831092A20113
:100C800061E085E090E00E94AF0381E00E94D9011D
:100C90008C018093A0011093A10180939E01109379
:100CA0009F0180E00E94D90190939D0180939C0157
:100CB00090939B0180939A018EE291E0909357026A
:100CC00080935602C80117FD0396959587959595D3
:100CD00087958093580281E090E090935A02809328
:100CE000590286E592E09093500280934F02109251
:100CF00064021092650210926602109267021092CE
:100D00006302809153028C7F81608093530211E0D3
:100D10000FEF8BE00E94B500892B09F0DAC1109229
:100D2000A2011093990160E084E090E00E94AF037B
:100D300061E085E090E00E94AF038CE00E94B50086
:100D4000892BE1F580918401811138C010939901BC
:100D50001092020110938401809100019091010191
:100D60000196843091050CF0C6C1909301018093E7
:100D70000001E0900001F0900101F7FC19C061E072
:100D8000C7010E94AF03F701EE0FFF1FEE0FFF1F19
:100D9000E05FFE4F80819181A281B38180938501C4
:100DA00090938601A0938701B093880110938D01E1
:100DB00064E170E080E090E00E940F028CE00E940D
:100DC000B500019741F4109284016AE070E080E080
:100DD00090E00E940F022FB7F8948091AA019091A1
:100DE000AB01A091AC01B091AD012FBF80939501F3
:100DF00090939601A0939701B093980180919901E7
:100E0000882309F462C080919401882309F449C0C1
:100E10008091920190919301992309F486C11092D7
:100E200093019FE089278093A401F12CE12C80910C
:100E3000A40190E00E2C02C0959587950A94E2F7E4
:100E4000817099270E94A9042FEFE21AF20A38E074
:100E5000E316F10461F786E491E00E94580487E507
:100E600091E00E945804F12CE12C8091920190E0D5
:100E70000E2C02C0959587950A94E2F78170992708
:100E80000E94A9044FEFE41AF40A58E0E516F104B1
:100E900061F78AE591E00E94580487E591E00E949D
:100EA00058041092940110929901809195019091AB
:100EB0009601A0919701B091980180938E01909333
:100EC0008F01A0939001B0939101409195015091B1
:100ED0009601609197017091980180918E01909197
:100EE0008F01A0919001B09191018056904FAF4F2A
:100EF000BF4F84179507A607B70760F48091940148
:100F0000811108C0109394018091A40180939201F3
:100F10001092A40180910201811142C080918D0143
:100F2000882351F010928D014093890150938A01DA
:100F300060938B0170938C01809185019091860163
:100F4000A0918701B0918801C0908901D0908A0159
:100F5000E0908B01F0908C018C0D9D1DAE1DBF1D8E
:100F600084179507A607B707D8F48CE691E00E948E
:100F7000580460918501709186018091870190915C
:100F8000880128EE33E040E050E00E945A0BCA018D
:100F9000B9014AE00E94650487E591E00E94580487
:100FA000F090A201F110C7C081E00E94D901209108
:100FB0009E0130919F01281B390B37FF03C03195EB
:100FC0002195310924502D3340F490939F01809353
:100FD0009E0110939901FF24F39480E00E94D901AF
:100FE00020919A0130919B01281B390B37FF03C0D8
:100FF00031952195310924502D3308F09AC09093F2
:101000009B0180939A011093990180919E01909188
:101010009F0197FD03969595879595958795E82E61
:1010200060919A0170919B01F090530264307105B8
:101030000CF489C1072E000C880B990B0E944D0AF5
:1010400020E030E040E85AE30E94B10A20E030E4BA
:101050004CE956E40E94B10A0E941C0A76956795F5
:1010600084E291E090935702809356027093590264
:101070006093580210925B0210925A0270935D02C4
:1010800060935C0210925E0200935F0256E5852E2B
:1010900052E0952E9092500280924F02109264027C
:1010A000109265021092660210926702109263021B
:1010B0008F2D8C7F81608093530264E1962E9E1465
:1010C00010F039E1E32EE092550284E1809354025E
:1010D00032C082E00E94D901811592400CF02DCEE1
:1010E0001093A2011093990161E084E090E00E94C6
:1010F000AF0360E01ECE4FEF5FEF509301014093CE
:101100000001F12CE12C60E0C7010E94AF035FEF0A
:10111000E51AF50A84E0E816F104A9F710939301A3
:101120001093020110938D0124CE9091A401892B7C
:101130007ACEF1106ACF0E94EA01C090A501D0904A
:10114000A601E090A701F090A8014B015C018C186A
:101150009D08AE08BF087501640122E0C216D104E3
:10116000E104F10408F465C06093A5017093A60141
:101170008093A7019093A8014091A40150E0809032
:10118000030190900401A0900501B0900601F09039
:10119000A30130E020E081E090E0022E01C0880F42
:1011A0000A94EAF7BA01022E02C0759567950A946F
:1011B000E2F760FFF2C081149104A104B10409F4C4
:1011C000ECC0F82A2F5F3F4F2630310521F7F0920F
:1011D000A30181E090E0A0E0B0E089288A288B2874
:1011E00019F080E090E0DC0180930301909304010A
:1011F000A0930501B093060160E088E00E94DE0044
:1012000098E0E92E6F2D661F6627661F84E00E9416
:10121000DE00FF0C61E087E00E94DE0060E087E016
:101220000E94DE00EA94E110EDCF61E088E00E94C8
:10123000DE008FB7F894C090AA01D090AB01E09087
:10124000AC01F090AD018FBF90915302892F837054
:1012500009F4B6C0A0914F02B0915002109709F462
:10126000AFC0813009F09CC02091680230916902C2
:10127000B701A601420F531F611D711D4093640207
:101280005093650260936602709367029C7F926040
:1012900090935302C09263024091640250916502A0
:1012A000609166027091670246015701841A950A9F
:1012B000A60AB70AB501A40177FD82C08FE4A82E63
:1012C00082E0B82EBA82A982ED91FC91119701902B
:1012D000F081E02DCD0109951C01A0916102B09132
:1012E00062024090640250906502609066027090C5
:1012F000670240916A0250916B02AF3FBA0709F44E
:101300006CC0460157013FEF831A930AA30AB30A40
:1013100084189508A608B7089C01240F351F0E9461
:101320007C0B861A970AA80AB90AB7FC56C08091A6
:1013300053028C7F8093530241E0241A3108A101AB
:1013400070E060E067C000935502109254022EE2F4
:10135000A22E21E0B22EB0925702A09256028093A4
:10136000580221E030E030935A022093590246E5BA
:1013700052E05093500240934F0210926402109238
:1013800065021092660210926702109263028F2D1E
:101390008C7F816080935302CECE8095F82212CF4D
:1013A0004091630250E070E060E0460157019924EB
:1013B000AA24BB2484169506A606B70609F06ACFB0
:1013C00080E090E0892B09F4A4CC0E94AB02882332
:1013D00009F49DCC0E9400009ACCC701B6016419A3
:1013E000750986099709420D531D9A0150E040E0A6
:1013F0000E945A0BAB01BC01C101B0E0A0E048174C
:1014000059076A077B0758F4809153028C7F8260EA
:1014100080935302CE0101960E943D01D1CF80916D
:101420005302982F9370923059F683608093530241
:1014300051E0251A310883CF0E94900A88F09F5707
:1014400098F0B92F9927B751B0F0E1F0660F771FE8
:10145000881F991F1AF0BA95C9F714C0B13091F0DE
:101460000E94AA0AB1E008950C94AA0A672F782F67
:101470008827B85F39F0B93FCCF3869577956795A3
:10148000B395D9F73EF490958095709561957F4F0F
:101490008F4F9F4F0895E89409C097FB3EF49095B5
:1014A0008095709561957F4F8F4F9F4F9923A9F03D
:1014B000F92F96E9BB279395F695879577956795CC
:1014C000B795F111F8CFFAF4BB0F11F460FF1BC010
:1014D0006F5F7F4F8F4F9F4F16C0882311F096E9A3
:1014E00011C0772321F09EE8872F762F05C0662351
:1014F00071F096E8862F70E060E02AF09A95660F0A
:10150000771F881FDAF7880F9695879597F90895C2
:1015100057FD9058440F551F59F05F3F71F04795A4
:10152000880F97FB991F61F09F3F79F08795089589
:10153000121613061406551FF2CF4695F1DF08C0A8
:10154000161617061806991FF1CF869571056105C5
:1015500008940895E894BB2766277727CB0197F96D
:1015600008950E94C40A0C94350B0E94270B38F092
:101570000E942E0B20F0952311F00C941E0B0C945E
:10158000240B11240C94AB0A0E94880A70F3959FD7
:10159000C1F3950F50E0551F629FF001729FBB276A
:1015A000F00DB11D639FAA27F00DB11DAA1F649F06
:1015B0006627B00DA11D661F829F2227B00DA11DB9
:1015C000621F739FB00DA11D621F839FA00D611D3F
:1015D000221F749F3327A00D611D231F849F600D60
:1015E000211D822F762F6A2F11249F5750409AF089
:1015F000F1F088234AF0EE0FFF1FBB1F661F771F15
:10160000881F91505040A9F79E3F510580F00C94DF
:101610001E0B0C94AB0A5F3FE4F3983ED4F386951F
:1016200077956795B795F795E7959F5FC1F7FE2B7F
:10163000880F911D9695879597F9089597F99F675B
:1016400080E870E060E008959FEF80EC089500244A
:101650000A941616170618060906089500240A9417
:1016600012161306140605060895092E0394000C9D
:1016700011F4882352F0BB0F40F4BF2B11F460FF2C
:1016800004C06F5F7F4F8F4F9F4F0895AA1BBB1BF6
:1016900051E107C0AA1FBB1FA617B70710F0A61B72
:1016A000B70B881F991F5A95A9F780959095BC0193
:1016B000CD010895A1E21A2EAA1BBB1BFD010DC08E
:1016C000AA1FBB1FEE1FFF1FA217B307E407F507F2
:1016D00020F0A21BB30BE40BF50B661F771F881FCE
:1016E000991F1A9469F760957095809590959B0164
:1016F000AC01BD01CF010895A29FB001B39FC0010D
:10170000A39F700D811D1124911DB29F700D811D2D
:101710001124911D0895B7FF0C94990B0E94990B09
:10172000821B930B0895EE0FFF1F0590F491E02D9F
:1017300009940E947C0BA59F900DB49F900DA49FCF
:10174000800D911D11240895F894FFCFFFFF010132
:1017500000000000030D214476B3E8FF10270000CD
:10176000204E000030750000409C0000000000008A
:101770001304C2031F040000000043044004470494
:1017800000000000E10241026E022E039F027D0272
:101790009102202D2073725F62696E5F73746174B1
:1017A0006963000D0A00202D2074725F62696E5F0C
:1017B00073746F726167650049742773206F766573
:1017C0007220706572696F64205B735D3A2000005F
:107800000C94343C0C94513C0C94513C0C94513CE1
:107810000C94513C0C94513C0C94513C0C94513CB4
:107820000C94513C0C94513C0C94513C0C94513CA4
:107830000C94513C0C94513C0C94513C0C94513C94
:107840000C94513C0C94513C0C94513C0C94513C84
:107850000C94513C0C94513C0C94513C0C94513C74
:107860000C94513C0C94513C11241FBECFEFD8E036
:10787000DEBFCDBF11E0A0E0B1E0ECE9FFE702C060
:1078800005900D92A230B107D9F712E0A2E0B1E065
:1078900001C01D92AD30B107E1F70E942D3D0C945F
:1078A000CC3F0C94003C982F959595959595959582
:1078B000905D8F708A307CF0282F295A8091C0000B
:1078C00085FFFCCF9093C6008091C00085FFFCCF60
:1078D0002093C6000895282F205DF0CF982F809127
:1078E000C00085FFFCCF9093C6000895EF92FF92F1
:1078F0000F931F93EE24FF2487018091C00087FD22
:1079000017C00894E11CF11C011D111D81E4E8164B
:1079100082E4F8068FE0080780E0180770F3E09132
:107920000401F091050109958091C00087FFE9CF1E
:107930008091C6001F910F91FF90EF9008950E94D3
:10794000763C982F8091C00085FFFCCF9093C600B5
:1079500091362CF490330CF09053892F089597555D
:10796000892F08951F930E949F3C182F0E949F3CCF
:107970001295107F810F1F9108951F93182F882350
:1079800021F00E94763C1150E1F71F9108951F935A
:10799000182F0E94763C803249F0809103018F5F5E
:1079A000809303018530C1F01F9108958091C0003C
:1079B00085FFFCCF84E18093C6008091C00085FFE5
:1079C000FCCF1093C6008091C00085FFFCCF80E102
:1079D0008093C6001F910895E0910401F091050184
:1079E00009951F9108950E94763C803241F0809164
:1079F00003018F5F80930301853081F008958091AA
:107A0000C00085FFFCCF84E18093C6008091C00058
:107A100085FFFCCF80E18093C6000895E0910401CA
:107A2000F09105010995089540E951E08823A1F0FE
:107A30002D9A28EE33E0FA013197F1F721503040CA
:107A4000D1F72D9828EE33E0FA013197F1F7215064
:107A50003040D1F7815061F708953F924F925F9285
:107A60006F927F928F929F92AF92BF92CF92DF924E
:107A7000EF92FF920F931F93CF93DF93000080E16B
:107A80008093C4001092C50088E18093C10086E015
:107A90008093C2005098589A259A81E00E94143D24
:107AA00024E1F22E9EE1E92E85E9D82E0FE0C02ECA
:107AB00010E1B12EAA24A394B1E49B2EA6E58A2E50
:107AC000F2E57F2EE0E26E2E79E4572E63E5462E36
:107AD00050E5352E0E94763C8033B1F18133B9F107
:107AE000803409F46FC0813409F476C0823409F41B
:107AF00085C0853409F488C0803531F1823521F1A3
:107B0000813511F1853509F485C0863509F48DC0BC
:107B1000843609F496C0843709F403C1853709F423
:107B200072C1863709F466C0809103018F5F80932C
:107B30000301853079F6E0910401F0910501099582
:107B40000E94763C803351F60E94F33CC3CF0E94E2
:107B5000763C803249F78091C00085FFFCCFF092DF
:107B6000C6008091C00085FFFCCF9092C600809136
:107B7000C00085FFFCCF8092C6008091C00085FFC9
:107B8000FCCF7092C6008091C00085FFFCCF609250
:107B9000C6008091C00085FFFCCF5092C600809146
:107BA000C00085FFFCCF4092C6008091C00085FFD9
:107BB000FCCF3092C6008091C00085FFFCCFB09210
:107BC000C60088CF0E94763C863808F4BDCF0E945C
:107BD000763C0E94F33C7ECF0E94763C803809F4CC
:107BE0009CC0813809F40BC1823809F43CC1883942
:107BF00009F48FC080E00E94C73C6CCF84E10E94F2
:107C0000BD3C0E94F33C66CF85E00E94BD3C0E94D3
:107C1000F33C60CF0E94763C809306010E94763C44
:107C2000809307010E94F33C55CF0E94763C80333D
:107C300009F41DC183E00E94BD3C80E00E94C73C66
:107C400049CF0E94763C809309020E94763C809343
:107C5000080280910C028E7F80930C020E94763C79
:107C6000853409F415C18091080290910902892B8D
:107C700089F000E010E00E94763CF801E85FFE4FDA
:107C800080830F5F1F4F80910802909109020817AF
:107C9000190788F30E94763C803209F045CF809125
:107CA0000C0280FF01C16091060170910701660F0F
:107CB000771F7093070160930601A0910802B091AD
:107CC00009021097C9F0E8E0F1E09B01AD014E0F09
:107CD0005F1FF999FECF32BD21BD819180BDFA9A17
:107CE000F99A2F5F3F4FE417F50799F76A0F7B1F4B
:107CF00070930701609306018091C00085FFFCCF5F
:107D0000F092C6008091C00085FFFCCFB092C60003
:107D1000E1CE83E00E94C73CDDCE82E00E94C73CFA
:107D2000D9CE0E94763C809309020E94763C8093D3
:107D300008028091060190910701880F991F909386
:107D40000701809306010E94763C853409F4A6C0A1
:107D500080910C028E7F80930C020E94763C8032D0
:107D600009F0B8CE8091C00085FFFCCFF092C6002C
:107D7000609108027091090261157105B9F140E046
:107D800050E080910C02A82FA170B82FB27011C0E2
:107D9000BB2309F45CC0E0910601F0910701319624
:107DA000F0930701E09306014F5F5F4F46175707B7
:107DB000E8F4AA2369F3F999FECF209106013091E6
:107DC000070132BD21BDF89A90B58091C00085FFB2
:107DD000FCCF9093C6002F5F3F4F30930701209355
:107DE00006014F5F5F4F4617570718F38091C00099
:107DF00085FDE5CE8091C00085FFF8CFE0CE81E023
:107E00000E94C73C67CE0E94763C803209F08CCE3F
:107E10008091C00085FFFCCFF092C6008091C00029
:107E200085FFFCCFE092C6008091C00085FFFCCFAB
:107E3000D092C6008091C00085FFFCCFC092C600E2
:107E40008091C00085FFFCCFB092C60043CEE09188
:107E50000601F091070194918091C00085FFFCCF4D
:107E60009093C6009CCF80E10E94C73C33CE0E9415
:107E7000763C0E94763C182F0E94763C112309F430
:107E800083C0113009F484C08FE00E94C73C22CE29
:107E900080910C02816080930C02E5CE80910C02EF
:107EA000816080930C0259CF809107018823880F4D
:107EB000880B8A2180930B02809106019091070123
:107EC000880F991F90930701809306018091080203
:107ED00080FF09C080910802909109020196909359
:107EE000090280930802F894F999FECF1127E091D6
:107EF0000601F0910701C8E0D1E08091080290915D
:107F00000902103091F40091570001700130D9F34B
:107F100003E000935700E89500915700017001308D
:107F2000D9F301E100935700E89509901990009169
:107F3000570001700130D9F301E000935700E89534
:107F40001395103498F011270091570001700130FB
:107F5000D9F305E000935700E895009157000170B0
:107F60000130D9F301E100935700E895329602976A
:107F700009F0C7CF103011F00296E5CF112480919F
:107F8000C00085FFB9CEBCCE8EE10E94C73CA2CD19
:0E7F900085E90E94C73C9ECDF894FFCF80008B
:00000001FF
