:020000040000FA
:100000000C9462000C948A000C948A000C948A0070
:100010000C948A000C948A000C948A000C948A0038
:100020000C948A000C948A000C948A000C948A0028
:100030000C948A000C948A000C948A000C948A0018
:100040000C94B0040C948A000C9420050C94FA04CF
:100050000C948A000C948A000C948A000C948A00F8
:100060000C948A000C948A000000000024002700F1
:100070002A0000000000250028002B0000000000DE
:1000800023002600290004040404040404040202DA
:100090000202020203030303030301020408102007
:1000A0004080010204081020010204081020000012
:1000B0000008000201000003040700000000000027
:1000C0000000520511241FBECFEFD8E0DEBFCDBF28
:1000D00011E0A0E0B1E0EEE1F7E102C005900D9281
:1000E000A438B107D9F722E0A4E8B1E001C01D921D
:1000F000AB36B207E1F710E0C2E6D0E004C02197CA
:10010000FE010E947C0BC136D107C9F70E949D05F4
:100110000C948D0B0C940000833081F028F4813016
:1001200099F08230A9F008958730A9F08830C9F09D
:100130008430B1F4809180008F7D03C08091800075
:100140008F7780938000089584B58F7784BD08955C
:1001500084B58F7DFBCF8091B0008F778093B00006
:1001600008958091B0008F7DF9CFCF93DF93282F32
:1001700030E0F901E255FF4F8491F901E656FF4F57
:10018000D491F901EA57FF4FC491CC23A1F081111A
:100190000E948C00EC2FF0E0EE0FFF1FE458FF4FA1
:1001A000A591B491EC91ED2381E090E009F480E019
:1001B000DF91CF91089580E090E0FACF1F93CF9325
:1001C000DF93282F30E0F901E255FF4F8491F901C8
:1001D000E656FF4FD491F901EA57FF4FC491CC2363
:1001E000A9F0162F81110E948C00EC2FF0E0EE0F89
:1001F000FF1FEE58FF4FA591B4918FB7F894EC9183
:10020000111108C0D095DE23DC938FBFDF91CF9111
:100210001F910895DE2BF8CFCF93DF9390E0FC0180
:10022000E656FF4F24918A579F4FFC018491882303
:10023000D1F090E0880F991FFC01E859FF4FA5917C
:10024000B491FC01EE58FF4FC591D491623071F426
:100250009FB7F8943C91822F809583238C93E881FB
:100260002E2B28839FBFDF91CF9108958FB7F894ED
:10027000EC912E2B2C938FBFF6CFEF92FF920F9322
:100280001F93CF93DF937C01DC01ED91FC91D6812C
:10029000158180819181DC01ED91FC910280F381D7
:1002A000E02D0995C82F111102C0DF3F51F0D11B7D
:1002B000DC9FC00111246FEF70E00E942F0BC12F53
:1002C000C60FF701E080F180D70114968C9182FD72
:1002D000C095F7018281811108C061E083810E948D
:1002E0000C0181E0D70112968C930C2F10E0F701DE
:1002F000D38161E08D2F0E940C010115110551F48D
:1003000060E08D2FDF91CF911F910F91FF90EF90C3
:100310000C94DE000F3F110511F461E0F2CFED2FD8
:10032000F0E0E255FF4FE491E33049F140F4E13071
:10033000B1F0E230F9F0003811057CF7E1CFE73099
:1003400041F1E83071F1E430B1F7809180008062D2
:100350008093800010938B0000938A0004C084B5C2
:10036000806884BDC7BDDF91CF911F910F91FF9031
:10037000EF90089584B5806284BDC8BDF4CF8091AC
:10038000800080688093800010938900009388002B
:10039000EACF8091B00080688093B000C093B30032
:1003A000E2CF8091B00080628093B000C093B4002F
:1003B000DACF806480937C0080917A00806480939F
:1003C0007A0080917A0086FDFCCF80917800909130
:1003D000790008953FB7F8948091AD019091AE01F6
:1003E000A091AF01B091B00126B5A89B05C02F3FE9
:1003F00019F00196A11DB11D3FBFBA2FA92F982F4B
:100400008827BC01CD01620F711D811D911D42E045
:10041000660F771F881F991F4A95D1F708958F920D
:100420009F92AF92BF92CF92DF92EF92FF924B01D9
:100430005C010E94EA016B017C010E94EA016C19D7
:100440007D098E099F09683E734081059105A8F3D7
:1004500021E0821A9108A108B10888EEC80E83E055
:10046000D81EE11CF11C81149104A104B10429F7E8
:10047000FF90EF90DF90CF90BF90AF909F908F90C4
:100480000895AF92BF92CF92DF92EF92FF920F93B7
:100490001F93CF93DF936C017B018B01040F151F1A
:1004A000EB015E01AE18BF08C017D10759F0699182
:1004B000D601ED91FC910190F081E02DC6010995E6
:1004C000892B79F7C501DF91CF911F910F91FF9093
:1004D000EF90DF90CF90BF90AF900895FC01538DC7
:1004E000448D252F30E0842F90E0821B930B54170E
:1004F00010F0CF96089501970895FC01918D828D9B
:10050000981761F0A28DAE0FBF2FB11D5D968C9133
:10051000928D9F5F9F73928F90E008958FEF9FEF72
:100520000895FC01918D828D981731F0828DE80F2E
:10053000F11D858D90E008958FEF9FEF0895FC01E8
:10054000918D228D892F90E0805C9F4F821B9109B5
:100550008F739927089581EB91E00E949F0221E01B
:10056000892B09F420E0822F089580E090E0892B08
:1005700029F00E94AB0281110C9400000895FC0147
:10058000A48DA80FB92FB11DA35ABF4F2C91848DF4
:1005900090E001968F739927848FA689B7892C9351
:1005A000A089B1898C91837080648C93938D848DA4
:1005B000981306C00288F389E02D80818F7D8083A7
:1005C0000895EF92FF920F931F93CF93DF93EC0167
:1005D00081E0888F9B8D8C8D98131AC0E889F989EA
:1005E000808185FF15C09FB7F894EE89FF896083ED
:1005F000E889F98980818370806480839FBF81E06E
:1006000090E0DF91CF911F910F91FF90EF900895AF
:10061000F62E0B8D10E00F5F1F4F0F731127E02E8A
:100620008C8D8E110CC00FB607FCFACFE889F989C2
:10063000808185FFF5CFCE010E94BF02F1CFEB8D07
:10064000EC0FFD2FF11DE35AFF4FF0829FB7F89496
:100650000B8FEA89FB8980818062CFCFCF93DF93B4
:10066000EC01888D8823B9F0AA89BB89E889F989CA
:100670008C9185FD03C0808186FD0DC00FB607FCFF
:10068000F7CF8C9185FFF2CF808185FFEDCFCE0132
:100690000E94BF02E9CFDF91CF910895CF92DF9200
:1006A000EF92FF920F931F93CF93DF939A0150E045
:1006B00040E06B017C01EFEFCE1ADE0AEE0AFE0A83
:1006C000C216D306E406F50608F047C0982F872F18
:1006D000762F66270E94430BDA01C9019927AA27C2
:1006E000BB276C017D01F5E0F694E794D794C7949D
:1006F000FA95D1F7F601E95FFE4FE0816FEFC61A78
:10070000D60AE60AF60AE601C95FDE4F68816E1B6B
:10071000770B89019A01007E1127222733276C016C
:100720007D01C01AD10AE20AF30AA7019601DB0192
:100730000E94740BDC01CB01C5E0B695A795979597
:100740008795CA95D1F78E0FDF91CF911F910F91A9
:10075000FF90EF90DF90CF9008958FEFF5CF21E0DD
:1007600030E0082E01C0220F0A94EAF720959091FC
:10077000A301292301C0660F8A95EAF7262B20934F
:10078000A3010895CF92DF92EF92FF920F931F93F0
:10079000CF93DF93EC016A017B014A815B81CA013F
:1007A000B0E0A0E0C816D906EA06FB06E8F4CB01E3
:1007B000B6010E944E0369852885211102C06F3F52
:1007C00051F0621B689FC00111246FEF70E00E941E
:1007D0002F0B822F860FDF91CF911F910F91FF90EA
:1007E000EF90DF90CF9008958C819D81480F591F25
:1007F00070E060E08FEFC416D506E606F706D8F283
:100800000E811F81E881F9810190F081E02DCE01F8
:100810000995B0E0A0E0BC01CD016C197D098E09FD
:100820009F09A801C6CFFC01228133818481958173
:10083000280F391F86819781820F931F0895DC014D
:10084000FB0184E291E09183808312968D919C91CB
:1008500013979383828314968D919C91159795831A
:10086000848316968D919C9117979783868318960B
:100870008C911897808719968C918187CB01089568
:10088000FC0182810895FC01838194810895FB011C
:100890002EE231E031832083DC0112962C911297F5
:1008A000228313968D919C9194838383CB01089529
:1008B000FC0101900020E9F73197AF01481B590B6B
:1008C000BC0181EB91E00C9441028F929F92AF9218
:1008D000BF920F931F93CF93DF93CDB7DEB7A1974E
:1008E0000FB6F894DEBF0FBECDBF19A2423008F498
:1008F0004AE08E010F5D1F4F842E912CB12CA12C4C
:10090000A50194010E94430BE62FB901CA01EA3008
:10091000F4F4E05DD801EE938D01232B242B252BDD
:1009200079F790E080E0109719F0CD010E9458040B
:10093000A1960FB6F894DEBF0FBECDBFDF91CF9169
:100940001F910F91BF90AF909F908F900895E95C99
:10095000E1CFBC01990F880B990B4AE00C94650418
:100960001F920F920FB60F9211242F933F938F93E4
:100970009F93AF93BF938091A9019091AA01A091F9
:10098000AB01B091AC013091A80123E0230F2D37CA
:1009900058F50196A11DB11D2093A8018093A901CE
:1009A0009093AA01A093AB01B093AC018091AD01EB
:1009B0009091AE01A091AF01B091B0010196A11D3F
:1009C000B11D8093AD019093AE01A093AF01B093A0
:1009D000B001BF91AF919F918F913F912F910F9057
:1009E0000FBE0F901F90189526E8230F0296A11DA9
:1009F000B11DD2CF1F920F920FB60F9211242F93D9
:100A00003F934F935F936F937F938F939F93AF9396
:100A1000BF93EF93FF9381EB91E00E94BF02FF91A0
:100A2000EF91BF91AF919F918F917F916F915F9166
:100A30004F913F912F910F900FBE0F901F901895DF
:100A40001F920F920FB60F9211242F938F939F93A3
:100A5000EF93FF93E091C101F091C2018081E09199
:100A6000C701F091C80182FD1BC090818091CA012D
:100A70008F5F8F732091CB01821741F0E091CA0103
:100A8000F0E0EF54FE4F958F8093CA01FF91EF91F4
:100A90009F918F912F910F900FBE0F901F901895DF
:100AA0008081F4CFE1EBF1E01382128288EE93E0D3
:100AB000A0E0B0E084839583A683B78388E391E0C8
:100AC0009183808385EC90E09587848784EC90E027
:100AD0009787868780EC90E0918B808B81EC90E00B
:100AE000938B828B82EC90E0958B848B86EC90E0EC
:100AF000978B868B118E128E138E148EEEE4F2E09D
:100B000011821082148A158A168A178A108E128E04
:100B1000118E148E138EA2E5B2E08C918C7F8160D1
:100B20008B7F8C9315828FEF86838FEF9FEF938B54
:100B3000828B128283E083830895CF93DF9300D06A
:100B4000CDB7DEB7789484B5826084BD84B581600A
:100B500084BD85B5826085BD85B5816085BD809188
:100B60006E00816080936E00109281008091810000
:100B700082608093810080918100816080938100F8
:100B8000809180008160809380008091B1008460BA
:100B90008093B1008091B00081608093B00080911B
:100BA0007A00846080937A0080917A0082608093DA
:100BB0007A0080917A00816080937A0080917A0037
:100BC000806880937A001092C10061E084E00E9406
:100BD0000C0161E087E00E940C0161E088E00E9466
:100BE0000C0162E08BE00E940C0162E08CE00E944C
:100BF0000C0161E085E00E940C0161E086E00E944A
:100C00000C0161E089E00E940C0161E083E00E9438
:100C10000C01E091C101F091C20182E08083E0917A
:100C2000BD01F091BE011082E091BF01F091C001C1
:100C30008FEC80831092C901E091C501F091C6014B
:100C400086E08083E091C301F091C40180818061DE
:100C50008083E091C301F091C4018081886080832A
:100C6000E091C301F091C401808180688083E091AC
:100C7000C301F091C40180818F7D80831092A10116
:100C800061E085E090E00E94AF0381E00E94D9011D
:100C90008C0180939F011093A00180939D0110937C
:100CA0009E0180E00E94D90190939C0180939B015A
:100CB00090939A01809399018EE291E0909356026D
:100CC00080935502C80117FD0396959587959595D4
:100CD00087958093570281E090E09093590280932A
:100CE000580285E592E090934F0280934E02109255
:100CF00063021092640210926502109266021092D2
:100D00006202809152028C7F816080935202332470
:100D1000339422242A948BE00E94B500892B09F099
:100D2000CFC11092A1013092940160E084E090E084
:100D30000E94AF0361E085E090E00E94AF038CE089
:100D40000E94B500892BE1F580918401811138C0A2
:100D5000309294011092000130928401809101013F
:100D6000909102010196843091050CF0BBC19093E3
:100D7000020180930101009101011091020117FD10
:100D800019C061E0C8010E94AF03000F111F000FDE
:100D9000111FF801E05FFE4F80819181A281B38134
:100DA0008093850190938601A0938701B093880179
:100DB00030928D0164E170E080E090E00E940F02CB
:100DC0008CE00E94B500019741F4109284016AE022
:100DD00070E080E090E00E940F022FB7F8948091BD
:100DE000A9019091AA01A091AB01B091AC012FBFD4
:100DF0008093950190939601A0939701B0939801E9
:100E000080919401882309F460C080919301882324
:100E100009F447C0809192012091010130910201B3
:100E20002F3F3F4F09F074C16FE0C62E8C25809391
:100E3000A30110E000E08091A30190E0002E02C029
:100E4000959587950A94E2F7817099270E94A904E5
:100E50000F5F1F4F0830110571F786E491E00E9483
:100E6000580487E591E00E94580410E000E080916A
:100E7000920190E0002E02C0959587950A94E2F7C2
:100E8000817099270E94A9040F5F1F4F0830110538
:100E900071F78AE591E00E94580487E591E00E948D
:100EA00058041092930110929401809195019091B1
:100EB0009601A0919701B091980180938E01909333
:100EC0008F01A0939001B0939101409195015091B1
:100ED0009601609197017091980180918E01909197
:100EE0008F01A0919001B09191018056904FAF4F2A
:100EF000BF4F84179507A607B70760F48091930149
:100F0000811108C0309293018091A30180939201D6
:100F10001092A30180910001811142C080918D0146
:100F2000882351F010928D014093890150938A01DA
:100F300060938B0170938C01809185019091860163
:100F4000A0918701B09188010091890110918A01D7
:100F500020918B0130918C01800F911FA21FB31F34
:100F600084179507A607B707D8F48CE691E00E948E
:100F7000580460918501709186018091870190915C
:100F8000880128EE33E040E050E00E94430BCA01A4
:100F9000B9014AE00E94650487E591E00E94580487
:100FA0001091A1011111BAC081E00E94D9012091D4
:100FB0009D0130919E01281B390B37FF03C03195ED
:100FC0002195310924502D3328F490939E0180936C
:100FD0009D0111E080E00E94D9012091990130919A
:100FE0009A01281B390B37FF03C031952195310930
:100FF00024502D3308F090C090939A01809399016A
:1010000080919D0190919E0197FD039695958795FE
:1010100095958795082F6091990170919A0110918B
:101020005202643071050CF495C1072E000C880B38
:10103000990B0E94360A20E030E040E85AE30E9413
:101040009A0A20E030E44CE956E40E949A0A0E9491
:10105000050A7695679544E2E42E41E0F42EF0927D
:101060005602E09255027093580260935702109214
:101070005A021092590270935C0260935B021092C4
:101080005D0220925E0225E532E030934F0220930C
:101090004E02109263021092640210926502109246
:1010A0006602109262021C7F116010935202053199
:1010B00008F409E10093540284E1809353022EC0A6
:1010C00082E00E94D901811592400CF038CE309216
:1010D000A1013092940161E084E090E00E94AF03AE
:1010E00060E029CE2FEF3FEF309302012093010102
:1010F00010E000E060E0C8010E94AF030F5F1F4FE7
:1011000004301105B9F73092000130928D0133CED1
:101110009091A301892B8BCE111172CF0E94EA010D
:101120000091A4011091A5012091A6013091A70181
:101130006B017C01C01AD10AE20AF30A9701860109
:10114000023011052105310508F463C06093A40144
:101150007093A5018093A6019093A7014091A301EC
:1011600050E0C0900301D0900401E0900501F090A0
:1011700006011091A20130E020E081E090E0022E13
:1011800001C0880F0A94EAF7BA01022E02C07595D1
:1011900067950A94E2F760FF07C1C114D104E10426
:1011A000F10409F401C1182B2F5F3F4F26303105A0
:1011B00021F71093A20181E090E0A0E0B0E0CD28FB
:1011C000CE28CF2819F080E090E0DC018093030165
:1011D00090930401A0930501B093060160E088E0BC
:1011E0000E94DE0008E0612F661F6627661F84E00C
:1011F0000E94DE00110F61E087E00E94DE0060E0E7
:1012000087E00E94DE00015071F761E088E00E94F3
:10121000DE008FB7F894C090A901D090AA01E090A9
:10122000AB01F090AC018FBF90915202892F837077
:1012300009F4CDC0A0914E02B0914F02109709F46D
:10124000C6C0813009F0B3C02091670230916802B6
:10125000B701A601420F531F611D711D4093630228
:101260005093640260936502709366029C7F926063
:1012700090935202C09262024091630250916402C4
:10128000609165027091660297018601041B150B3F
:10129000260B370BB901A80177FD99C02EE432E087
:1012A0003A832983ED91FC9111970190F081E02D13
:1012B000CD0109958C01A0916002B091610240902E
:1012C00063025090640260906502709066024091E3
:1012D000690250916A02AF3FBA07C9F0460157014F
:1012E0008FEF881A980AA80AB80A84189508A608E1
:1012F000B7089801240F351F0E94650B861A970ABC
:10130000A80AB90A809152028C7FB7FE76C0C70145
:10131000B6016419750986099709400F511F9A0192
:1013200050E040E00E94430BAB01BC01C801B0E0BB
:10133000A0E0481759076A077B0708F057C080915B
:1013400052028C7F826080935202CE0101960E94ED
:101350003D013DC020925402109253029EE2C92EDC
:1013600091E0D92ED0925602C09255028093570236
:10137000EE24E394F12CF0925902E092580225E514
:1013800032E030934F0220934E021092630210928B
:1013900064021092650210926602109262021C7F33
:1013A000116010935202BACE80951823FDCE409161
:1013B000620250E070E060E0970186011127222769
:1013C0003327041715072607370709F053CF80E0A6
:1013D000C82E80E0D82ECD2809F49DCC0E94AB0207
:1013E000882309F494CC0E94000091CC8091520291
:1013F000982F9370923059F7836080935202015076
:101400001109A80170E060E0A0CF0E94790A88F07D
:101410009F5798F0B92F9927B751B0F0E1F0660FB8
:10142000771F881F991F1AF0BA95C9F714C0B130F9
:1014300091F00E94930AB1E008950C94930A672FEB
:10144000782F8827B85F39F0B93FCCF38695779528
:101450006795B395D9F73EF4909580957095619511
:101460007F4F8F4F9F4F0895E89409C097FB3EF43C
:1014700090958095709561957F4F8F4F9F4F9923E1
:10148000A9F0F92F96E9BB279395F695879577955F
:101490006795B795F111F8CFFAF4BB0F11F460FF1F
:1014A0001BC06F5F7F4F8F4F9F4F16C0882311F077
:1014B00096E911C0772321F09EE8872F762F05C08B
:1014C000662371F096E8862F70E060E02AF09A9526
:1014D000660F771F881FDAF7880F9695879597F91B
:1014E000089557FD9058440F551F59F05F3F71F014
:1014F0004795880F97FB991F61F09F3F79F087957B
:101500000895121613061406551FF2CF4695F1DF03
:1015100008C0161617061806991FF1CF8695710593
:10152000610508940895E894BB2766277727CB01C7
:1015300097F908950E94AD0A0C941E0B0E94100B9F
:1015400038F00E94170B20F0952311F00C94070B34
:101550000C940D0B11240C94940A0E94710A70F3E0
:10156000959FC1F3950F50E0551F629FF001729F48
:10157000BB27F00DB11D639FAA27F00DB11DAA1F57
:10158000649F6627B00DA11D661F829F2227B00DA4
:10159000A11D621F739FB00DA11D621F839FA00D2F
:1015A000611D221F749F3327A00D611D231F849F7F
:1015B000600D211D822F762F6A2F11249F575040D6
:1015C0009AF0F1F088234AF0EE0FFF1FBB1F661F51
:1015D000771F881F91505040A9F79E3F510580F01A
:1015E0000C94070B0C94940A5F3FE4F3983ED4F3F9
:1015F000869577956795B795F795E7959F5FC1F7BE
:10160000FE2B880F911D9695879597F9089597F968
:101610009F6780E870E060E008959FEF80EC089598
:1016200000240A94161617061806090608950024C1
:101630000A9412161306140605060895092E03943B
:10164000000C11F4882352F0BB0F40F4BF2B11F4AF
:1016500060FF04C06F5F7F4F8F4F9F4F0895AA1B9D
:10166000BB1B51E107C0AA1FBB1FA617B70710F08D
:10167000A61BB70B881F991F5A95A9F780959095BF
:10168000BC01CD010895A1E21A2EAA1BBB1BFD01CE
:101690000DC0AA1FBB1FEE1FFF1FA217B307E40751
:1016A000F50720F0A21BB30BE40BF50B661F771FA9
:1016B000881F991F1A9469F7609570958095909589
:1016C0009B01AC01BD01CF010895A29FB001B39F62
:1016D000C001A39F700D811D1124911DB29F700D3B
:1016E000811D1124911D0895B7FF0C94820B0E9457
:1016F000820B821B930B0895EE0FFF1F0590F49150
:10170000E02D09940E94650BA59F900DB49F900D4C
:10171000A49F800D911D11240895F894FFCF01FF1F
:10172000FF0100000000030D214476B3E8FF1027FD
:101730000000204E000030750000409C00000000BA
:1017400000001304C2031F0400000000430440040F
:10175000470400000000E10241026E022E039F02D6
:101760007D029102202D2073725F62696E5F737437
:1017700061746963000D0A00202D2074725F626934
:101780006E5F73746F726167650049742773206FB1
:1017900076657220706572696F64205B735D3A20B4
:0217A000000047
:107800000C94343C0C94513C0C94513C0C94513CE1
:107810000C94513C0C94513C0C94513C0C94513CB4
:107820000C94513C0C94513C0C94513C0C94513CA4
:107830000C94513C0C94513C0C94513C0C94513C94
:107840000C94513C0C94513C0C94513C0C94513C84
:107850000C94513C0C94513C0C94513C0C94513C74
:107860000C94513C0C94513C11241FBECFEFD8E036
:10787000DEBFCDBF11E0A0E0B1E0ECE9FFE702C060
:1078800005900D92A230B107D9F712E0A2E0B1E065
:1078900001C01D92AD30B107E1F70E942D3D0C945F
:1078A000CC3F0C94003C982F959595959595959582
:1078B000905D8F708A307CF0282F295A8091C0000B
:1078C00085FFFCCF9093C6008091C00085FFFCCF60
:1078D0002093C6000895282F205DF0CF982F809127
:1078E000C00085FFFCCF9093C6000895EF92FF92F1
:1078F0000F931F93EE24FF2487018091C00087FD22
:1079000017C00894E11CF11C011D111D81E4E8164B
:1079100082E4F8068FE0080780E0180770F3E09132
:107920000401F091050109958091C00087FFE9CF1E
:107930008091C6001F910F91FF90EF9008950E94D3
:10794000763C982F8091C00085FFFCCF9093C600B5
:1079500091362CF490330CF09053892F089597555D
:10796000892F08951F930E949F3C182F0E949F3CCF
:107970001295107F810F1F9108951F93182F882350
:1079800021F00E94763C1150E1F71F9108951F935A
:10799000182F0E94763C803249F0809103018F5F5E
:1079A000809303018530C1F01F9108958091C0003C
:1079B00085FFFCCF84E18093C6008091C00085FFE5
:1079C000FCCF1093C6008091C00085FFFCCF80E102
:1079D0008093C6001F910895E0910401F091050184
:1079E00009951F9108950E94763C803241F0809164
:1079F00003018F5F80930301853081F008958091AA
:107A0000C00085FFFCCF84E18093C6008091C00058
:107A100085FFFCCF80E18093C6000895E0910401CA
:107A2000F09105010995089540E951E08823A1F0FE
:107A30002D9A28EE33E0FA013197F1F721503040CA
:107A4000D1F72D9828EE33E0FA013197F1F7215064
:107A50003040D1F7815061F708953F924F925F9285
:107A60006F927F928F929F92AF92BF92CF92DF924E
:107A7000EF92FF920F931F93CF93DF93000080E16B
:107A80008093C4001092C50088E18093C10086E015
:107A90008093C2005098589A259A81E00E94143D24
:107AA00024E1F22E9EE1E92E85E9D82E0FE0C02ECA
:107AB00010E1B12EAA24A394B1E49B2EA6E58A2E50
:107AC000F2E57F2EE0E26E2E79E4572E63E5462E36
:107AD00050E5352E0E94763C8033B1F18133B9F107
:107AE000803409F46FC0813409F476C0823409F41B
:107AF00085C0853409F488C0803531F1823521F1A3
:107B0000813511F1853509F485C0863509F48DC0BC
:107B1000843609F496C0843709F403C1853709F423
:107B200072C1863709F466C0809103018F5F80932C
:107B30000301853079F6E0910401F0910501099582
:107B40000E94763C803351F60E94F33CC3CF0E94E2
:107B5000763C803249F78091C00085FFFCCFF092DF
:107B6000C6008091C00085FFFCCF9092C600809136
:107B7000C00085FFFCCF8092C6008091C00085FFC9
:107B8000FCCF7092C6008091C00085FFFCCF609250
:107B9000C6008091C00085FFFCCF5092C600809146
:107BA000C00085FFFCCF4092C6008091C00085FFD9
:107BB000FCCF3092C6008091C00085FFFCCFB09210
:107BC000C60088CF0E94763C863808F4BDCF0E945C
:107BD000763C0E94F33C7ECF0E94763C803809F4CC
:107BE0009CC0813809F40BC1823809F43CC1883942
:107BF00009F48FC080E00E94C73C6CCF84E10E94F2
:107C0000BD3C0E94F33C66CF85E00E94BD3C0E94D3
:107C1000F33C60CF0E94763C809306010E94763C44
:107C2000809307010E94F33C55CF0E94763C80333D
:107C300009F41DC183E00E94BD3C80E00E94C73C66
:107C400049CF0E94763C809309020E94763C809343
:107C5000080280910C028E7F80930C020E94763C79
:107C6000853409F415C18091080290910902892B8D
:107C700089F000E010E00E94763CF801E85FFE4FDA
:107C800080830F5F1F4F80910802909109020817AF
:107C9000190788F30E94763C803209F045CF809125
:107CA0000C0280FF01C16091060170910701660F0F
:107CB000771F7093070160930601A0910802B091AD
:107CC00009021097C9F0E8E0F1E09B01AD014E0F09
:107CD0005F1FF999FECF32BD21BD819180BDFA9A17
:107CE000F99A2F5F3F4FE417F50799F76A0F7B1F4B
:107CF00070930701609306018091C00085FFFCCF5F
:107D0000F092C6008091C00085FFFCCFB092C60003
:107D1000E1CE83E00E94C73CDDCE82E00E94C73CFA
:107D2000D9CE0E94763C809309020E94763C8093D3
:107D300008028091060190910701880F991F909386
:107D40000701809306010E94763C853409F4A6C0A1
:107D500080910C028E7F80930C020E94763C8032D0
:107D600009F0B8CE8091C00085FFFCCFF092C6002C
:107D7000609108027091090261157105B9F140E046
:107D800050E080910C02A82FA170B82FB27011C0E2
:107D9000BB2309F45CC0E0910601F0910701319624
:107DA000F0930701E09306014F5F5F4F46175707B7
:107DB000E8F4AA2369F3F999FECF209106013091E6
:107DC000070132BD21BDF89A90B58091C00085FFB2
:107DD000FCCF9093C6002F5F3F4F30930701209355
:107DE00006014F5F5F4F4617570718F38091C00099
:107DF00085FDE5CE8091C00085FFF8CFE0CE81E023
:107E00000E94C73C67CE0E94763C803209F08CCE3F
:107E10008091C00085FFFCCFF092C6008091C00029
:107E200085FFFCCFE092C6008091C00085FFFCCFAB
:107E3000D092C6008091C00085FFFCCFC092C600E2
:107E40008091C00085FFFCCFB092C60043CEE09188
:107E50000601F091070194918091C00085FFFCCF4D
:107E60009093C6009CCF80E10E94C73C33CE0E9415
:107E7000763C0E94763C182F0E94763C112309F430
:107E800083C0113009F484C08FE00E94C73C22CE29
:107E900080910C02816080930C02E5CE80910C02EF
:107EA000816080930C0259CF809107018823880F4D
:107EB000880B8A2180930B02809106019091070123
:107EC000880F991F90930701809306018091080203
:107ED00080FF09C080910802909109020196909359
:107EE000090280930802F894F999FECF1127E091D6
:107EF0000601F0910701C8E0D1E08091080290915D
:107F00000902103091F40091570001700130D9F34B
:107F100003E000935700E89500915700017001308D
:107F2000D9F301E100935700E89509901990009169
:107F3000570001700130D9F301E000935700E89534
:107F40001395103498F011270091570001700130FB
:107F5000D9F305E000935700E895009157000170B0
:107F60000130D9F301E100935700E895329602976A
:107F700009F0C7CF103011F00296E5CF112480919F
:107F8000C00085FFB9CEBCCE8EE10E94C73CA2CD19
:0E7F900085E90E94C73C9ECDF894FFCF80008B
:00000001FF
