:100000000C9462000C948A000C948A000C948A0070
:100010000C948A000C948A000C948A000C948A0038
:100020000C948A000C948A000C948A000C948A0028
:100030000C948A000C948A000C948A000C948A0018
:100040000C94AB040C948A000C941B050C94F504DE
:100050000C948A000C948A000C948A000C948A00F8
:100060000C948A000C948A000000000024002700F1
:100070002A0000000000250028002B0000000000DE
:1000800023002600290004040404040404040202DA
:100090000202020203030303030301020408102007
:1000A0004080010204081020010204081020000012
:1000B0000008000201000003040700000000000027
:1000C00000004D0511241FBECFEFD8E0DEBFCDBF2D
:1000D00011E0A0E0B1E0E6E8FBE102C005900D927E
:1000E000A036B107D9F722E0A0E6B1E001C01D9229
:1000F000A434B207E1F710E0C2E6D0E004C02197D3
:10010000FE010E94BB0DC136D107C9F70E949805B8
:100110000C94C10D0C940000833081F028F48130E0
:1001200099F08230A9F008958730A9F08830C9F09D
:100130008430B1F4809180008F7D03C08091800075
:100140008F7780938000089584B58F7784BD08955C
:1001500084B58F7DFBCF8091B0008F778093B00006
:1001600008958091B0008F7DF9CFCF93DF93282F32
:1001700030E0F901E255FF4F8491F901E656FF4F57
:10018000D491F901EA57FF4FC491CC23A1F081111A
:100190000E948C00EC2FF0E0EE0FFF1FE458FF4FA1
:1001A000A591B491EC91ED2381E090E009F480E019
:1001B000DF91CF91089580E090E0FACF1F93CF9325
:1001C000DF93282F30E0F901E255FF4F8491F901C8
:1001D000E656FF4FD491F901EA57FF4FC491CC2363
:1001E000A9F0162F81110E948C00EC2FF0E0EE0F89
:1001F000FF1FEE58FF4FA591B4918FB7F894EC9183
:10020000111108C0D095DE23DC938FBFDF91CF9111
:100210001F910895DE2BF8CFCF93DF9390E0FC0180
:10022000E656FF4F24918A579F4FFC018491882303
:10023000D1F090E0880F991FFC01E859FF4FA5917C
:10024000B491FC01EE58FF4FC591D491623071F426
:100250009FB7F8943C91822F809583238C93E881FB
:100260002E2B28839FBFDF91CF9108958FB7F894ED
:10027000EC912E2B2C938FBFF6CF1F93CF93DF9350
:10028000182FEB0161E00E940C01209739F460E027
:10029000812FDF91CF911F910C94DE00CF3FD105CC
:1002A00011F461E0F5CFE12FF0E0E255FF4FE4916A
:1002B000E33031F140F4E130B1F0E230E1F0C03848
:1002C000D1057CF7E4CFE73029F1E83059F1E4308B
:1002D000B1F780918000806280938000D0938B0082
:1002E000C0938A0004C084B5806884BDC7BDDF9117
:1002F000CF911F91089584B5806284BDC8BDF7CFAA
:1003000080918000806880938000D0938900C093A2
:100310008800EDCF8091B00080688093B000C093DA
:10032000B300E5CF8091B00080628093B000C093AD
:10033000B400DDCFEF92FF920F931F93CF93DF9323
:100340007C01DC01ED91FC91D68115818081918148
:10035000DC01ED91FC910280F381E02D0995C82F1D
:10036000111102C0DF3F51F0D11BDC9FC0011124ED
:100370006FEF70E00E94A00DC12FC60FF701008142
:100380001181D80114968C9182FDC095F80182816B
:10039000811108C061E083810E940C0181E0D801D5
:1003A00012968C936C2F70E0F8018381DF91CF91CE
:1003B0001F910F91FF90EF900C943D01806480930A
:1003C0007C0080917A00806480937A0080917A002A
:1003D00086FDFCCF809178009091790008953FB719
:1003E000F8948091860190918701A0918801B09145
:1003F000890126B5A89B05C02F3F19F00196A11DC4
:10040000B11D3FBFBA2FA92F982F8827BC01CD015E
:10041000620F711D811D911D42E0660F771F881FBD
:10042000991F4A95D1F708958F929F92AF92BF92EC
:10043000CF92DF92EF92FF924B015C010E94EF019D
:100440006B017C010E94EF016C197D098E099F09E7
:10045000683E734081059105A8F321E0821A910856
:10046000A108B10888EEC80E83E0D81EE11CF11C7B
:1004700081149104A104B10429F7FF90EF90DF905B
:10048000CF90BF90AF909F908F900895AF92BF9202
:10049000CF92DF92EF92FF920F931F93CF93DF9350
:1004A0006C017B018B01040F151FEB015E01AE187F
:1004B000BF08C017D10759F06991D601ED91FC91A1
:1004C0000190F081E02DC6010995892B79F7C501CE
:1004D000DF91CF911F910F91FF90EF90DF90CF9020
:1004E000BF90AF900895FC01538D448D252F30E0CF
:1004F000842F90E0821B930B541710F0CF96089531
:1005000001970895FC01918D828D981761F0A28D5D
:10051000AE0FBF2FB11D5D968C91928D9F5F9F7323
:10052000928F90E008958FEF9FEF0895FC01918DD9
:10053000828D981731F0828DE80FF11D858D90E046
:1005400008958FEF9FEF0895FC01918D228D892FE3
:1005500090E0805C9F4F821B91098F7399270895CB
:100560008AE891E00E94A40221E0892B09F420E0AE
:10057000822F089580E090E0892B29F00E94B0023C
:1005800081110C9400000895FC01A48DA80FB92FCF
:10059000B11DA35ABF4F2C91848D90E001968F73AB
:1005A0009927848FA689B7892C93A089B1898C91CA
:1005B000837080648C93938D848D981306C0028819
:1005C000F389E02D80818F7D80830895EF92FF92E3
:1005D0000F931F93CF93DF93EC0181E0888F9B8D66
:1005E0008C8D98131AC0E889F989808185FF15C020
:1005F0009FB7F894EE89FF896083E889F989808143
:100600008370806480839FBF81E090E0DF91CF9111
:100610001F910F91FF90EF900895F62E0B8D10E033
:100620000F5F1F4F0F731127E02E8C8D8E110CC0A2
:100630000FB607FCFACFE889F989808185FFF5CFED
:10064000CE010E94C402F1CFEB8DEC0FFD2FF11D06
:10065000E35AFF4FF0829FB7F8940B8FEA89FB892A
:1006600080818062CFCFCF93DF93EC01888D882388
:10067000B9F0AA89BB89E889F9898C9185FD03C005
:10068000808186FD0DC00FB607FCF7CF8C9185FFEA
:10069000F2CF808185FFEDCFCE010E94C402E9CF69
:1006A000DF91CF910895CF92DF92EF92FF920F9357
:1006B0001F93CF93DF939A0150E040E06B017C01E0
:1006C000EFEFCE1ADE0AEE0AFE0AC216D306E406E1
:1006D000F50608F047C0982F872F762F66270E94CF
:1006E000D60ADA01C9019927AA27BB276C017D0127
:1006F000F5E0F694E794D794C794FA95D1F7F6010C
:10070000E95FFE4FE0816FEFC61AD60AE60AF60AE5
:10071000E601C95FDE4F68816E1B770B89019A0184
:10072000007E1127222733276C017D01C01AD10AD0
:10073000E20AF30AA7019601DB010E94CE0ADC015E
:10074000CB01C5E0B695A79597958795CA95D1F742
:100750008E0FDF91CF911F910F91FF90EF90DF905F
:10076000CF9008958FEFF5CF1F93CF93DF93EC01D8
:1007700081E00E94DE01CC0FDD1FFE01EA58FE4F32
:1007800020813181281B390B37FF03C0319521951A
:100790003109245010E02D3348F4FE01EA58FE4F91
:1007A0009183808381E08093710111E080E00E9459
:1007B000DE01FE01EE58FE4F20813181281B390BEE
:1007C00037FF03C031952195310924502D3340F472
:1007D000CE58DE4F9983888381E08093710111E0C8
:1007E000812FDF91CF911F91089521E030E0082EF5
:1007F00001C0220F0A94EAF7209590917C012923E9
:1008000001C0660F8A95EAF7262B20937C01089594
:10081000CF92DF92EF92FF920F931F93CF93DF93CC
:10082000EC016A017B014A815B81CA01B0E0A0E072
:10083000C816D906EA06FB06E8F4CB01B6010E9409
:10084000530369852885211102C06F3F51F0621B57
:10085000689FC00111246FEF70E00E94A00D822FED
:10086000860FDF91CF911F910F91FF90EF90DF9056
:10087000CF9008958C819D81480F591F70E060E0F2
:100880008FEFC416D506E606F706D8F20E811F8153
:10089000E881F9810190F081E02DCE010995B0E069
:1008A000A0E0BC01CD016C197D098E099F09A8014A
:1008B000C6CFFC012281338184819581280F391FA5
:1008C00086819781820F931F0895DC01FB0184E2EA
:1008D00091E09183808312968D919C9113979383DD
:1008E000828314968D919C91159795838483169697
:1008F0008D919C9117979783868318968C91189762
:10090000808719968C918187CB010895FC018281A3
:100910000895FC01838194810895FB012EE231E06A
:1009200031832083DC0112962C9112972283139637
:100930008D919C9194838383CB010895FC01019058
:100940000020E9F73197AF01481B590BBC018AE839
:1009500091E00C9446021F920F920FB60F92112451
:100960002F933F938F939F93AF93BF938091820177
:1009700090918301A0918401B09185013091810112
:1009800023E0230F2D3758F50196A11DB11D2093AB
:1009900081018093820190938301A0938401B0939D
:1009A00085018091860190918701A0918801B09185
:1009B00089010196A11DB11D809386019093870145
:1009C000A0938801B0938901BF91AF919F918F91BE
:1009D0003F912F910F900FBE0F901F90189526E812
:1009E000230F0296A11DB11DD2CF1F920F920FB6F9
:1009F0000F9211242F933F934F935F936F937F93A5
:100A00008F939F93AF93BF93EF93FF938AE891E007
:100A10000E94C402FF91EF91BF91AF919F918F917E
:100A20007F916F915F914F913F912F910F900FBEEA
:100A30000F901F9018951F920F920FB60F921124CE
:100A40002F938F939F93EF93FF93E0919A01F091EF
:100A50009B018081E091A001F091A10182FD1BC06A
:100A600090818091A3018F5F8F732091A4018217E1
:100A700041F0E091A301F0E0E657FE4F958F80939F
:100A8000A301FF91EF919F918F912F910F900FBE36
:100A90000F901F9018958081F4CFEAE8F1E013825F
:100AA000128288EE93E0A0E0B0E084839583A68371
:100AB000B78388E391E09183808385EC90E095870C
:100AC000848784EC90E09787868780EC90E0918B18
:100AD000808B81EC90E0938B828B82EC90E0958B05
:100AE000848B86EC90E0978B868B118E128E138E02
:100AF000148EE7E2F2E011821082148A158A168AB7
:100B0000178A108E128E118E148E138EABE2B2E005
:100B10008C918C7F81608B7F8C9315828FEF868385
:100B20008FEF9FEF938B828B128283E083830895F4
:100B3000CF93DF93CDB7DEB7A5970FB6F894DEBF9E
:100B40000FBECDBF789484B5826084BD84B58160CA
:100B500084BD85B5826085BD85B5816085BD809188
:100B60006E00816080936E00109281008091810000
:100B700082608093810080918100816080938100F8
:100B8000809180008160809380008091B1008460BA
:100B90008093B1008091B00081608093B00080911B
:100BA0007A00846080937A0080917A0082608093DA
:100BB0007A0080917A00816080937A0080917A0037
:100BC000806880937A001092C10061E084E00E9406
:100BD0000C0161E087E00E940C0161E088E00E9466
:100BE0000C0162E08BE00E940C0162E08CE00E944C
:100BF0000C0161E086E00E940C0161E089E00E9446
:100C00000C0161E085E00E940C0161E083E00E943C
:100C10000C01E0919A01F0919B0182E08083E091C8
:100C20009601F09197011082E0919801F09199015D
:100C30008FEC80831092A201E0919E01F0919F01C0
:100C400086E08083E0919C01F0919D01808180612C
:100C50008083E0919C01F0919D0180818860808378
:100C6000E0919C01F0919D01808180688083E091FA
:100C70009C01F0919D0180818F7D808310927A018B
:100C800061E085E090E00E94F50381E00E94DE01D2
:100C90008C018093780110937901809376011093F1
:100CA000770180E00E94DE019093750180937401CA
:100CB00090937301809372018EE291E090932F02E2
:100CC00080932E02C80117FD0396959587959595FB
:100CD00087958093300281E090E090933202809378
:100CE00031028EE292E090932802809327021092C4
:100CF0003C0210923D0210923E0210923F0210926E
:100D00003B0280912B028C7F816080932B023324E5
:100D10003394EFE02E2E8BE00E94B500892B09F072
:100D2000A9C110927A013092710160E084E090E0F4
:100D30000E94F50361E085E090E00E94F5038CE0FD
:100D40000E94B500892BE1F580916001811138C0C6
:100D50003092710110920201309260018091000185
:100D6000909101010196843091050CF095C190930A
:100D7000010180930001009100011091010117FD14
:100D800019C061E0C8010E94F503000F111F000F98
:100D9000111FF801E05FFE4F80819181A281B38134
:100DA0008093610190936201A0936301B093640109
:100DB0003092690164E170E080E090E00E941402EA
:100DC0008CE00E94B500019741F4109260016AE046
:100DD00070E080E090E00E9414022FB7F8948091B8
:100DE000820190918301A0918401B09185012FBF70
:100DF000209171012223E1F020917001222361F002
:100E000020916E0130916F01332309F45DC110927E
:100E10006F01222520937C011092700110927101C4
:100E200080936A0190936B01A0936C01B0936D0164
:100E300040916A0150916B0160916C0170916D015C
:100E400048575C4E6F4F7F4F481759076A077B071B
:100E500060F420917001211108C03092700120913E
:100E60007C0120936E0110927C01209102012111DE
:100E70005AC020916901222351F010926901809398
:100E8000650190936601A0936701B093680140915A
:100E90006101509162016091630170916401009160
:100EA0006501109166012091670130916801400F42
:100EB000511F621F731F481759076A077B0798F570
:100EC00086E491E00E949E0460916101709162014C
:100ED000809163019091640128EE33E040E050E09E
:100EE0000E94D60A19A28E010F5D1F4F6AE0C62E1E
:100EF000D12CE12CF12CCA01B901A70196010E9465
:100F0000D60A605DF80162938F0121153105410514
:100F1000510589F7309719F0CF010E949E048DE5A5
:100F200091E00E949E0480917A01882309F44BC2CB
:100F300081E090E00E94B403882309F41CC1609111
:100F4000780170917901072E000C880B990B0E9493
:100F50001C0C20E030EC4FE754E40E94790B7B013D
:100F60008C01A0917401B091750128E631E00E94D6
:100F7000B40D2FEF33E040E050E00E94A40AB90125
:100F8000330F880B990B0E941C0C2B013C0120E0B5
:100F900030E040E752E40E94790B20E030E040E08E
:100FA00050E40E94620C20E030E040E85FE30E94E1
:100FB000070B4B015C0120E030E0A9010E942E0DDF
:100FC00018160CF085C0A501940160E070E080E87F
:100FD0009FE30E94070B9B01AC01B701C8010E946F
:100FE000330D5B016C019701A801B701C8010E9494
:100FF000070B6AA37BA38CA39DA320E030E040E70E
:1010000052E4C301B2010E94740B87FD74C020E05A
:1010100030E040EF52E4C301B2010E94740B87FD3F
:1010200060C020E030E044E353E4C301B2010E9419
:10103000740B87FDBCC120E030E040E753E4C301FE
:10104000B2010E94740B87FDBBC120E030E046E98D
:1010500053E4C301B2010E94740B3501460187FFBE
:1010600004C03701480175018601A12CB12CC12CA7
:10107000D12C45C082E00E94DE01811592400CF027
:101080005ECE30927A013092710161E084E090E0AE
:101090000E94F50360E04FCE2FEF3FEF3093010148
:1010A0002093000110E000E060E0C8010E94F50319
:1010B0000F5F1F4F04301105B9F730926F01309266
:1010C00002013092690157CE30917C01232BA2CED0
:1010D00020E030E040E85FE3C501B4010E94080B66
:1010E0007ACF3E2D2F2D902F812F75018601A32EB3
:1010F000B22EC92ED82E612C712C812C912C9701E7
:10110000A8016AA17BA18CA19DA10E94080B20E0EF
:1011100030E04FE753E40E94330D0E94EB0B70E088
:1011200086E00E943D019501A6016AA17BA18CA1E8
:101130009DA10E94080B20E030E04FE753E40E949D
:10114000330D0E94EB0B70E089E00E943D0193019A
:10115000A4016AA17BA18CA19DA10E94080B20E0A3
:1011600030E04FE753E40E94330D0E94EB0B70E038
:1011700085E00E943D010E94EF0100917D011091E8
:101180007E0120917F01309180016B017C01C01AAA
:10119000D10AE20AF30A97018601023011052105FE
:1011A000310508F463C060937D0170937E018093E4
:1011B0007F019093800140917C0150E0C090030139
:1011C000D0900401E0900501F090060110917B01A0
:1011D00030E020E081E090E0022E01C0880F0A9408
:1011E000EAF7BA01022E02C0759567950A94E2F7F4
:1011F00060FF7BC1C114D104E104F10409F475C19D
:10120000182B2F5F3F4F2630310521F710937B01BC
:1012100081E090E0A0E0B0E0CD28CE28CF2819F002
:1012200080E090E0DC018093030190930401A0939F
:101230000501B093060160E088E00E94DE0008E04E
:10124000612F661F6627661F84E00E94DE00110F73
:1012500061E087E00E94DE0060E087E00E94DE003F
:10126000015071F761E088E00E94DE008FB7F894CA
:10127000C0908201D0908301E0908401F0908501BC
:101280008FBF90912B02892F837009F441C1A091E7
:101290002702B0912802109709F43AC1813009F071
:1012A00027C12091400230914102B701A601420FAF
:1012B000531F611D711D40933C0250933D0260938A
:1012C0003E0270933F029C7F926090932B02C092EB
:1012D0003B0240913C0250913D0260913E02709170
:1012E0003F0297018601041B150B260B370BB90132
:1012F000A80177FD0DC127E232E03A832983ED9101
:10130000FC9111970190F081E02DCD0109958C01A0
:10131000A0913902B0913A0240903C0250903D02B7
:1013200060903E0270903F02409142025091430211
:10133000AF3FBA07C9F0460157018FEF881A980AE4
:10134000A80AB80A84189508A608B7089801240FB7
:10135000351F0E94F80A861A970AA80AB90A8091CE
:101360002B028C7FB7FEE8C0C701B601641975096E
:1013700086099709400F511F9A0150E040E00E94F2
:10138000D60AAB01BC01C801B0E0A0E0481759077C
:101390006A077B0708F0C9C080912B028C7F8260AE
:1013A00080932B02CE0101960E949A01B1C03501B3
:1013B000460157016801E12CF12C00E010E09FCEBE
:1013C00037014801F8CF90E080E00E94B403882301
:1013D00009F4D1CE809176019091770197FD039623
:1013E0009595879595958795082F609172017091D5
:1013F000730110912B02643071050CF44EC0072E5E
:10140000000C880B990B0E941C0C20E030E040E897
:101410005AE30E94330D20E030E44CE956E40E9488
:10142000330D0E94EB0B7695679594E2C92E91E0FF
:10143000D92ED0922F02C0922E0270933102609367
:101440003002109233021092320270933502609390
:101450003402109236028FEF809337022EE2E22E92
:1014600022E0F22EF0922802E092270210923C0233
:1014700010923D0210923E0210923F0210923B02E7
:101480001C7F116010932B02053108F409E10093D1
:101490002D0284E180932C026ECE9FEF90932D025B
:1014A00010922C022EE231E030932F0220932E0274
:1014B0008093300281E090E0909332028093310279
:1014C000EEE2F2E0F0932802E093270210923C0251
:1014D00010923D0210923E0210923F0210923B0287
:1014E0001C7F116010932B0246CE8095182389CE65
:1014F00040913B0250E070E060E0970186011127C7
:1015000022273327041715072607370709F0DFCEF0
:10151000E0E0F0E0EF2B09F4FECB0E94B00288235C
:1015200009F4F5CB0E940000F2CB80912B02982F9A
:101530009370923069F7836080932B0201501109F8
:10154000A80170E060E02ECF052E97FB1EF40094FA
:101550000E94BB0A57FD07D00E94D60A07FC03D0A1
:101560004EF40C94BB0A50954095309521953F4F11
:101570004F4F5F4F089590958095709561957F4F7F
:101580008F4F9F4F08950E94F80AA59F900DB49F1A
:10159000900DA49F800D911D11240895B7FF0C9408
:1015A000C30A0E94C30A821B930B0895A1E21A2E5C
:1015B000AA1BBB1BFD010DC0AA1FBB1FEE1FFF1FF7
:1015C000A217B307E407F50720F0A21BB30BE40B47
:1015D000F50B661F771F881F991F1A9469F760958E
:1015E0007095809590959B01AC01BD01CF01089548
:1015F000A29FB001B39FC001A39F700D811D112454
:10160000911DB29F700D811D1124911D0895505898
:10161000BB27AA270E941F0B0C94F40C0E94E60C17
:1016200038F00E94ED0C20F039F49F3F19F426F4B5
:101630000C94E30C0EF4E095E7FB0C94CF0CE92F2F
:101640000E94050D58F3BA176207730784079507C0
:1016500020F079F4A6F50C94270D0EF4E0950B2EEE
:10166000BA2FA02D0B01B90190010C01CA01A001F4
:101670001124FF27591B99F0593F50F4503E68F14F
:101680001A16F040A22F232F342F4427585FF3CF90
:10169000469537952795A795F0405395C9F77EF461
:1016A0001F16BA0B620B730B840BBAF09150A1F0AA
:1016B000FF0FBB1F661F771F881FC2F70EC0BA0F30
:1016C000621F731F841F48F4879577956795B795B8
:1016D000F7959E3F08F0B0CF9395880F08F09927B3
:1016E000EE0F9795879508950E94AB0C08F481E062
:1016F00008950E948D0B0C94F40C0E94ED0C58F090
:101700000E94E60C40F029F45F3F29F00C94CF0CC6
:1017100051110C94280D0C94E30C0E94050D68F3F4
:101720009923B1F3552391F3951B550BBB27AA279A
:1017300062177307840738F09F5F5F4F220F331FD4
:10174000441FAA1FA9F335D00E2E3AF0E0E832D09C
:1017500091505040E695001CCAF72BD0FE2F29D09F
:10176000660F771F881FBB1F261737074807AB0771
:10177000B0E809F0BB0B802DBF01FF2793585F4FE6
:101780003AF09E3F510578F00C94CF0C0C94280D44
:101790005F3FE4F3983ED4F3869577956795B795C8
:1017A000F7959F5FC9F7880F911D9695879597F9D3
:1017B0000895E1E0660F771F881FBB1F621773074C
:1017C0008407BA0720F0621B730B840BBA0BEE1F61
:1017D00088F7E09508950E940D0D88F09F5798F0C6
:1017E000B92F9927B751B0F0E1F0660F771F881F26
:1017F000991F1AF0BA95C9F714C0B13091F00E9440
:10180000270DB1E008950C94270D672F782F8827B6
:10181000B85F39F0B93FCCF3869577956795B39566
:10182000D9F73EF490958095709561957F4F8F4FD5
:101830009F4F0895E89409C097FB3EF490958095DA
:10184000709561957F4F8F4F9F4F9923A9F0F92F86
:1018500096E9BB279395F695879577956795B79504
:10186000F111F8CFFAF4BB0F11F460FF1BC06F5FEA
:101870007F4F8F4F9F4F16C0882311F096E911C0FC
:10188000772321F09EE8872F762F05C0662371F01D
:1018900096E8862F70E060E02AF09A95660F771F31
:1018A000881FDAF7880F9695879597F908950E9413
:1018B000E60C20F019F00E94ED0C50F40C94E30CAF
:1018C0000C94280DE92F0E94050D88F35523B1F3E0
:1018D000E7FB6217730784079507A8F189F3E92FDF
:1018E000FF2788232AF03197660F771F881FDAF7C2
:1018F000952F5527442332F091505040220F331F2B
:10190000441FD2F7BB27E91BF50B621B730B840B3B
:10191000B109B1F222F4620F731F841FB11D319718
:101920002AF0660F771F881FBB1FEFCF91505040E2
:1019300062F041F0882332F0660F771F881F9150C4
:101940005040C1F793950C94D50C86957795679583
:101950009F5FD9F7F7CF990F0008550FAA0BE0E862
:10196000FEEF16161706E807F907C0F01216130661
:10197000E407F50798F0621B730B840B950B39F4A1
:101980000A2661F0232B242B252B21F408950A2607
:1019900009F4A140A6958FEF811D811D089597F947
:1019A0009F6780E870E060E008959F3F31F09150BC
:1019B00020F4879577956795B795880F911D969533
:1019C000879597F908959FEF80EC089500240A9475
:1019D0001616170618060906089500240A9412160A
:1019E0001306140605060895092E0394000C11F43D
:1019F000882352F0BB0F40F4BF2B11F460FF04C0EA
:101A00006F5F7F4F8F4F9F4F089557FD9058440F42
:101A1000551F59F05F3F71F04795880F97FB991F4D
:101A200061F09F3F79F0879508951216130614060A
:101A3000551FF2CF4695F1DF08C016161706180697
:101A4000991FF1CF86957105610508940895E89472
:101A5000BB2766277727CB0197F908950E94AB0C27
:101A600008F48FEF08950E94460D0C94F40C0E9428
:101A7000E60C38F00E94ED0C20F0952311F00C9448
:101A8000CF0C0C94E30C11240C94280D0E94050D2E
:101A900070F3959FC1F3950F50E0551F629FF001C1
:101AA000729FBB27F00DB11D639FAA27F00DB11DDA
:101AB000AA1F649F6627B00DA11D661F829F222763
:101AC000B00DA11D621F739FB00DA11D621F839FEA
:101AD000A00D611D221F749F3327A00D611D231FC0
:101AE000849F600D211D822F762F6A2F11249F570E
:101AF00050409AF0F1F088234AF0EE0FFF1FBB1F11
:101B0000661F771F881F91505040A9F79E3F5105CF
:101B100080F00C94CF0C0C94280D5F3FE4F3983EBA
:101B2000D4F3869577956795B795F795E7959F5F79
:101B3000C1F7FE2B880F911D9695879597F908950B
:101B4000AA1BBB1B51E107C0AA1FBB1FA617B707E3
:101B500010F0A61BB70B881F991F5A95A9F78095FF
:101B60009095BC01CD0108950E94F80AB7FF089531
:101B7000821B930B0895EE0FFF1F0590F491E02D4B
:061B80000994F894FFCF68
:101B8600FFFF010100000000030D214476B3E8FFCA
:101B960010270000204E000030750000409C000019
:101BA60000000000590408046504000000008904D0
:101BB60086048D0400000000E60246027302330329
:101BC600A4028202960249742773206F76657220FA
:101BD600706572696F64205B735D3A20000D0A00C0
:00000001FF
