:020000040000FA
:100000000C9462000C948A000C948A000C948A0070
:100010000C948A000C948A000C948A000C948A0038
:100020000C948A000C948A000C948A000C948A0028
:100030000C948A000C948A000C948A000C948A0018
:100040000C9483040C948A000C94F3040C94CD0457
:100050000C948A000C948A000C948A000C948A00F8
:100060000C948A000C948A000000000024002700F1
:100070002A0000000000250028002B0000000000DE
:1000800023002600290004040404040404040202DA
:100090000202020203030303030301020408102007
:1000A0004080010204081020010204081020000012
:1000B0000008000201000003040700000000000027
:1000C0000000250511241FBECFEFD8E0DEBFCDBF55
:1000D00011E0A0E0B1E0ECEAF5E102C005900D927C
:1000E000A233B107D9F723E0A2E3B1E001C01D922A
:1000F000A932B207E1F710E0C2E6D0E004C02197D0
:10010000FE010E94C30AC136D107C9F70E94CD057E
:100110000C94D40A0C940000833081F028F48130D0
:1001200099F08230A9F008958730A9F08830C9F09D
:100130008430B1F4809180008F7D03C08091800075
:100140008F7780938000089584B58F7784BD08955C
:1001500084B58F7DFBCF8091B0008F778093B00006
:1001600008958091B0008F7DF9CFCF93DF93282F32
:1001700030E0F901E255FF4F8491F901E656FF4F57
:10018000D491F901EA57FF4FC491CC23A1F081111A
:100190000E948C00EC2FF0E0EE0FFF1FE458FF4FA1
:1001A000A591B491EC91ED2381E090E009F480E019
:1001B000DF91CF91089580E090E0FACF1F93CF9325
:1001C000DF93282F30E0F901E255FF4F8491F901C8
:1001D000E656FF4FD491F901EA57FF4FC491CC2363
:1001E000A9F0162F81110E948C00EC2FF0E0EE0F89
:1001F000FF1FEE58FF4FA591B4918FB7F894EC9183
:10020000111108C0D095DE23DC938FBFDF91CF9111
:100210001F910895DE2BF8CFCF93DF9390E0FC0180
:10022000E656FF4F24918A579F4FFC018491882303
:10023000D1F090E0880F991FFC01E859FF4FA5917C
:10024000B491FC01EE58FF4FC591D491623071F426
:100250009FB7F8943C91822F809583238C93E881FB
:100260002E2B28839FBFDF91CF9108958FB7F894ED
:10027000EC912E2B2C938FBFF6CFEF92FF920F9322
:100280001F93CF93DF937C01DC01ED91FC91D6812C
:10029000158180819181DC01ED91FC910280F381D7
:1002A000E02D0995C82F111102C0DF3F51F0D11B7D
:1002B000DC9FC00111246FEF70E00E94760AC12F0D
:1002C000C60FF701E080F180D70114968C9182FD72
:1002D000C095F7018281811108C061E083810E948D
:1002E0000C0181E0D70112968C930C2F10E0F701DE
:1002F000D38161E08D2F0E940C010115110551F48D
:1003000060E08D2FDF91CF911F910F91FF90EF90C3
:100310000C94DE000F3F110511F461E0F2CFED2FD8
:10032000F0E0E255FF4FE491E33049F140F4E13071
:10033000B1F0E230F9F0003811057CF7E1CFE73099
:1003400041F1E83071F1E430B1F7809180008062D2
:100350008093800010938B0000938A0004C084B5C2
:10036000806884BDC7BDDF91CF911F910F91FF9031
:10037000EF90089584B5806284BDC8BDF4CF8091AC
:10038000800080688093800010938900009388002B
:10039000EACF8091B00080688093B000C093B30032
:1003A000E2CF8091B00080628093B000C093B4002F
:1003B000DACF806480937C0080917A00806480939F
:1003C0007A0080917A0086FDFCCF80917800909130
:1003D000790008953FB7F8948091450190914601C6
:1003E000A0914701B091480126B5A89B05C02F3FB9
:1003F00019F00196A11DB11D3FBFBA2FA92F982F4B
:100400008827BC01CD01620F711D811D911D42E045
:10041000660F771F881F991F4A95D1F708958F920D
:100420009F92AF92BF92CF92DF92EF92FF924B01D9
:100430005C010E94EA016B017C010E94EA016C19D7
:100440007D098E099F09683E734081059105A8F3D7
:1004500021E0821A9108A108B10888EEC80E83E055
:10046000D81EE11CF11C81149104A104B10429F7E8
:10047000FF90EF90DF90CF90BF90AF909F908F90C4
:100480000895AF92BF92CF92DF92EF92FF920F93B7
:100490001F93CF93DF936C017B018B01040F151F1A
:1004A000EB015E01AE18BF08C017D10759F0699182
:1004B000D601ED91FC910190F081E02DC6010995E6
:1004C000892B79F7C501DF91CF911F910F91FF9093
:1004D000EF90DF90CF90BF90AF900895FC01538DC7
:1004E000448D252F30E0842F90E0821B930B54170E
:1004F00010F0CF96089501970895FC01918D828D9B
:10050000981761F0A28DAE0FBF2FB11D5D968C9133
:10051000928D9F5F9F73928F90E008958FEF9FEF72
:100520000895FC01918D828D981731F0828DE80F2E
:10053000F11D858D90E008958FEF9FEF0895FC01E8
:10054000918D228D892F90E0805C9F4F821B9109B5
:100550008F739927089589E491E00E949F0221E01A
:10056000892B09F420E0822F089580E090E0892B08
:1005700029F00E94AB0281110C9400000895FC0147
:10058000A48DA80FB92FB11DA35ABF4F2C91848DF4
:1005900090E001968F739927848FA689B7892C9351
:1005A000A089B1898C91837080648C93938D848DA4
:1005B000981306C00288F389E02D80818F7D8083A7
:1005C0000895EF92FF920F931F93CF93DF93EC0167
:1005D00081E0888F9B8D8C8D98131AC0E889F989EA
:1005E000808185FF15C09FB7F894EE89FF896083ED
:1005F000E889F98980818370806480839FBF81E06E
:1006000090E0DF91CF911F910F91FF90EF900895AF
:10061000F62E0B8D10E00F5F1F4F0F731127E02E8A
:100620008C8D8E110CC00FB607FCFACFE889F989C2
:10063000808185FFF5CFCE010E94BF02F1CFEB8D07
:10064000EC0FFD2FF11DE35AFF4FF0829FB7F89496
:100650000B8FEA89FB8980818062CFCFCF93DF93B4
:10066000EC01888D8823B9F0AA89BB89E889F989CA
:100670008C9185FD03C0808186FD0DC00FB607FCFF
:10068000F7CF8C9185FFF2CF808185FFEDCFCE0132
:100690000E94BF02E9CFDF91CF910895CF92DF9200
:1006A000EF92FF920F931F93CF93DF939A0150E045
:1006B00040E06B017C01EFEFCE1ADE0AEE0AFE0A83
:1006C000C216D306E406F50608F047C0982F872F18
:1006D000762F66270E948A0ADA01C9019927AA277C
:1006E000BB276C017D01F5E0F694E794D794C7949D
:1006F000FA95D1F7F601EE5FFE4FE0816FEFC61A73
:10070000D60AE60AF60AE601CE5FDE4F68816E1B66
:10071000770B89019A01007E1127222733276C016C
:100720007D01C01AD10AE20AF30AA7019601DB0192
:100730000E94BB0ADC01CB01C5E0B695A795979551
:100740008795CA95D1F78E0FDF91CF911F910F91A9
:10075000FF90EF90DF90CF9008958FEFF5CF21E0DD
:1007600030E0082E02C0220F331F0A94E2F72095D2
:10077000309540913E0150913F012423352370E094
:1007800002C0660F771F8A95E2F7622B732B709376
:100790003F0160933E010895CF92DF92EF92FF9266
:1007A0000F931F93CF93DF93EC016A017B014A8182
:1007B0005B81CA01B0E0A0E0C816D906EA06FB06D4
:1007C000E8F4CB01B6010E944E036985288521110A
:1007D00002C06F3F51F0621B689FC00111246FEF90
:1007E00070E00E94760A822F860FDF91CF911F91D1
:1007F0000F91FF90EF90DF90CF9008958C819D81B5
:10080000480F591F70E060E08FEFC416D506E6066A
:10081000F706D8F20E811F81E881F9810190F081FD
:10082000E02DCE010995B0E0A0E0BC01CD016C192E
:100830007D098E099F09A801C6CFFC012281338161
:1008400084819581280F391F86819781820F931F9C
:100850000895DC01FB018FE091E091838083129683
:100860008D919C9113979383828314968D919C9183
:1008700015979583848316968D919C9117979783EE
:10088000868318968C911897808719968C9181870A
:10089000CB010895FC0182810895FC01838194813C
:1008A0000895FB0129E131E031832083DC011296B8
:1008B0002C911297228313968D919C91948383831C
:1008C000CB010895CF93DF9360E088E00E94DE00C3
:1008D000D0913C01C8E06D2F661F6627661F84E03B
:1008E0000E94DE00DD0F61E087E00E94DE0060E034
:1008F00087E00E94DE00C15071F761E088E0DF917F
:10090000CF910C94DE001F920F920FB60F9211241C
:100910002F933F938F939F93AF93BF938091410108
:1009200090914201A0914301B09144013091400166
:1009300023E0230F2D3758F50196A11DB11D2093FB
:1009400040018093410190934201A0934301B093F1
:1009500044018091450190914601A0914701B091D9
:1009600048010196A11DB11D809345019093460158
:10097000A0934701B0934801BF91AF919F918F9190
:100980003F912F910F900FBE0F901F90189526E862
:10099000230F0296A11DB11DD2CF1F920F920FB649
:1009A0000F9211242F933F934F935F936F937F93F5
:1009B0008F939F93AF93BF93EF93FF9389E491E05D
:1009C0000E94BF02FF91EF91BF91AF919F918F91D4
:1009D0007F916F915F914F913F912F910F900FBE3B
:1009E0000F901F9018951F920F920FB60F9211241F
:1009F0002F938F939F93EF93FF93E0915901F09181
:100A00005A018081E0915F01F091600182FD1BC07D
:100A10009081809162018F5F8F73209163018217B3
:100A200041F0E0916201F0E0E75BFE4F958F80932B
:100A30006201FF91EF919F918F912F910F900FBEC7
:100A40000F901F9018958081F4CF10924C01109256
:100A50004B0188EE93E0A0E0B0E080934D019093CD
:100A60004E01A0934F01B093500183E291E0909327
:100A70004A018093490185EC90E090935601809360
:100A8000550184EC90E0909358018093570180ECDD
:100A900090E090935A018093590181EC90E09093FB
:100AA0005C0180935B0182EC90E090935E01809307
:100AB0005D0186EC90E09093600180935F0110925D
:100AC000620110926301109264011092650110920C
:100AD0000D0310920C031092200310922103109228
:100AE00022031092230310922403109226031092E3
:100AF00025031092280310922703809110038C7F06
:100B000081608B7F80931003109211038FEF80938D
:100B100012038FEF9FEF90931F0380931E03109299
:100B20000E0383E080930F03E6EEF1E01182108262
:100B30001382128215821482178216821186108601
:100B4000138612861486158616861786108A118AD1
:100B5000128A138A148A158A168A178A108E118EA1
:100B6000128E138E148E158E168E178E10A211A251
:100B700012A213A214A215A216A217A210A611A6C1
:100B800012A613A614A615A616A617A610AAF196C5
:100B900083E0EC30F80751F60895CF93DF9300D04F
:100BA000CDB7DEB7789484B5826084BD84B58160AA
:100BB00084BD85B5826085BD85B5816085BD809128
:100BC0006E00816080936E001092810080918100A0
:100BD0008260809381008091810081608093810098
:100BE000809180008160809380008091B10084605A
:100BF0008093B1008091B00081608093B0008091BB
:100C00007A00846080937A0080917A008260809379
:100C10007A0080917A00816080937A0080917A00D6
:100C2000806880937A001092C10061E084E00E94A5
:100C30000C0161E087E00E940C0161E088E00E9405
:100C40000C0162E08BE00E940C0162E08CE00E94EB
:100C50000C0161E085E00E940C0161E086E00E94E9
:100C60000C0161E089E00E940C0161E083E00E94D8
:100C70000C01E0915901F0915A0182E08083E091EA
:100C80005501F09156011082E0915701F091580101
:100C90008FEC808310926101E0915D01F0915E0123
:100CA00086E08083E0915B01F0915C01808180614E
:100CB0008083E0915B01F0915C018081886080839A
:100CC000E0915B01F0915C01808180688083E0911C
:100CD0005B01F0915C0180818F7D808310923B01EC
:100CE00061E085E090E00E94AF0381E00E94D901BD
:100CF0008C018093390110933A018093370110934E
:100D0000380180E00E94D90190933601809335012B
:100D1000909334018093330189E191E0909314031F
:100D200080931303C80117FD0396959587959595B4
:100D300087958093150381E090E09093170380934B
:100D4000160383E193E090930D0380930C031092BC
:100D50002103109222031092230310922403109275
:100D60002003809110038C7F8160809310030E9488
:100D7000620422242394312C8BE00E94B500892B3D
:100D800009F0DDC010923B0160E084E090E00E9439
:100D9000AF0361E085E090E00E94AF038CE00E9429
:100DA000B500892B81F58091320181112CC021E0A1
:100DB00020933201809100019091010101968430CD
:100DC00091050CF4CDC08FEF9FEF909301018093BC
:100DD000000110E000E060E0C8010E94AF030F5F77
:100DE0001F4F04301105B9F7809100019091010166
:100DF00097FD03C061E00E94AF0364E170E080E012
:100E000090E00E940F028CE00E94B500019741F42F
:100E1000109232016AE070E080E090E00E940F02E0
:100E200010913B011111A3C081E00E94D9012091D2
:100E3000370130913801281B390B37FF03C031953A
:100E40002195310924502E3228F490933801809353
:100E5000370111E080E00E94D901209133013091E7
:100E60003401281B390B37FF03C031952195310917
:100E700024502E3208F079C09093340180933301CE
:100E8000809137019091380197FD0396959587954C
:100E900095958795082F60913301709134011091D9
:100EA0001003643071050CF43FC1072E000C880B51
:100EB000990B0E947D0920E030E040E85AE30E944F
:100EC000E10920E030E44CE956E40E94E1090E9487
:100ED0004C0976956795EFE0F1E0F0931403E09309
:100EE0001303709316036093150310921803109266
:100EF000170370931A036093190310921B03FFEFFB
:100F0000F0931C0323E133E030930D0320930C0393
:100F100010922103109222031092230310922403B3
:100F2000109220031C7F116010931003053108F408
:100F300009E10093120334E13093110318C082E0F9
:100F40000E94D901811592400CF028CF11E0109336
:100F50003B0161E084E090E00E94AF0360E01ACFC3
:100F600090930101809300013FCF111189CF06EECC
:100F700011E0F12CE12C2FB7F89480914101909170
:100F80004201A0914301B09144012FBFF80184A315
:100F900095A3A6A3B7A3848B958BA68BB78B0E9432
:100FA000EA01F80160A771A782A793A7608F718FEC
:100FB000828F938F268137812F3F3F4F59F0F80161
:100FC000228133812115310509F4D6C02130310544
:100FD00009F4E4C02FEFE21AF20A0F5C1F4F36E06B
:100FE000E316F10441F68FB7F894C0904101D09018
:100FF0004201E0904301F09044018FBF90911003B3
:10100000892F837009F42AC1A0910C03B0910D03BC
:10101000109709F423C1813009F010C120912503F4
:1010200030912603B701A601420F531F611D711DA8
:10103000409321035093220360932303709324036E
:101040009C7F926090931003C092200340912103F3
:10105000509122036091230370912403970186012C
:10106000041B150B260B370BB901A80177FDF6C041
:101070002CE033E03A832983ED91FC9111970190A4
:10108000F081E02DCD0109958C01A0911E03B09156
:101090001F0340902103509022036090230370901F
:1010A00024034091270350912803AF3FBA07C9F0AA
:1010B000460157018FEF881A980AA80AB80A8418BF
:1010C0009508A608B7089801240F351F0E94AC0A9E
:1010D000861A970AA80AB90A809110038C7FB7FE76
:1010E000D3C0C701B6016419750986099709400F75
:1010F000511F9A0150E040E00E948A0AAB01BC01F6
:10110000C801B0E0A0E0481759076A077B0708F05C
:10111000B4C0809110038C7F826080931003CE0155
:1011200001960E943D019AC04FEF40931203109226
:101130001103E9E1F1E0F0931403E09313038093CA
:10114000150321E030E0309317032093160383E169
:1011500093E090930D0380930C031092210310925F
:1011600022031092230310922403109220031C7F69
:10117000116010931003FBCE2FB7F89480914101BA
:1011800090914201A0914301B09144012FBF848707
:101190009587A687B787338222821CCF8088918863
:1011A000A288B388681979098A099B096436710590
:1011B0008105910508F40ECF0E94EA01F801608BC9
:1011C000718B828B938B13821282828593858130FF
:1011D000910569F5868197810196978386831386A9
:1011E0001286F80186819781019609F4F3CEC10138
:1011F0000E2C02C0880F991F0A94E2F720913C013F
:1012000030913D0140913E0150913F010E2C02C0B2
:10121000559547950A94E2F740FD0DC0809590954D
:101220008223932390933D0180933C01D3CE01967A
:1012300093878287D6CF82279327F4CF40912003CC
:1012400050E070E060E097018601112722273327E4
:10125000041715072607370709F0F6CE0E94620427
:10126000E0E0F0E0EF2B09F487CD0E94AB02882389
:1012700009F482CD0E9400007FCD80911003982F49
:101280009370923059F783608093100301501109D5
:10129000A80170E060E043CF0E94C00988F09F572A
:1012A00098F0B92F9927B751B0F0E1F0660F771F8A
:1012B000881F991F1AF0BA95C9F714C0B13091F080
:1012C0000E94DA09B1E008950C94DA09672F782FAB
:1012D0008827B85F39F0B93FCCF386957795679545
:1012E000B395D9F73EF490958095709561957F4FB1
:1012F0008F4F9F4F0895E89409C097FB3EF4909557
:101300008095709561957F4F8F4F9F4F9923A9F0DE
:10131000F92F96E9BB279395F6958795779567956D
:10132000B795F111F8CFFAF4BB0F11F460FF1BC0B1
:101330006F5F7F4F8F4F9F4F16C0882311F096E944
:1013400011C0772321F09EE8872F762F05C06623F2
:1013500071F096E8862F70E060E02AF09A95660FAB
:10136000771F881FDAF7880F9695879597F9089564
:1013700057FD9058440F551F59F05F3F71F0479546
:10138000880F97FB991F61F09F3F79F0879508952B
:10139000121613061406551FF2CF4695F1DF08C04A
:1013A000161617061806991FF1CF86957105610567
:1013B00008940895E894BB2766277727CB0197F90F
:1013C00008950E94F4090C94650A0E94570A38F0A7
:1013D0000E945E0A20F0952311F00C944E0A0C94A2
:1013E000540A11240C94DB090E94B80970F3959FEC
:1013F000C1F3950F50E0551F629FF001729FBB270C
:10140000F00DB11D639FAA27F00DB11DAA1F649FA7
:101410006627B00DA11D661F829F2227B00DA11D5A
:10142000621F739FB00DA11D621F839FA00D611DE0
:10143000221F749F3327A00D611D231F849F600D01
:10144000211D822F762F6A2F11249F5750409AF02A
:10145000F1F088234AF0EE0FFF1FBB1F661F771FB6
:10146000881F91505040A9F79E3F510580F00C9481
:101470004E0A0C94DB095F3FE4F3983ED4F3869563
:1014800077956795B795F795E7959F5FC1F7FE2B21
:10149000880F911D9695879597F9089597F99F67FD
:1014A00080E870E060E008959FEF80EC08950024EC
:1014B0000A941616170618060906089500240A94B9
:1014C00012161306140605060895092E0394000C3F
:1014D00011F4882352F0BB0F40F4BF2B11F460FFCE
:1014E00004C06F5F7F4F8F4F9F4F0895AA1BBB1B98
:1014F00051E107C0AA1FBB1FA617B70710F0A61B14
:10150000B70B881F991F5A95A9F780959095BC0134
:10151000CD010895A1E21A2EAA1BBB1BFD010DC02F
:10152000AA1FBB1FEE1FFF1FA217B307E407F50793
:1015300020F0A21BB30BE40BF50B661F771F881F6F
:10154000991F1A9469F760957095809590959B0105
:10155000AC01BD01CF010895A29FB001B39FC001AE
:10156000A39F700D811D1124911DB29F700D811DCF
:101570001124911D0895B7FF0C94C90A0E94C90A4D
:10158000821B930B0895EE0FFF1F0590F491E02D41
:1015900009940E94AC0AA59F900DB49F900DA49F42
:1015A000800D911D11240895F894FFCFFFFF0003D3
:1015B0000D214476B3E8FF000000001D04CC032990
:1015C00004000000004D044A04510400000000E142
:0E15D0000241026E022E039F027D0291020074
:107800000C94343C0C94513C0C94513C0C94513CE1
:107810000C94513C0C94513C0C94513C0C94513CB4
:107820000C94513C0C94513C0C94513C0C94513CA4
:107830000C94513C0C94513C0C94513C0C94513C94
:107840000C94513C0C94513C0C94513C0C94513C84
:107850000C94513C0C94513C0C94513C0C94513C74
:107860000C94513C0C94513C11241FBECFEFD8E036
:10787000DEBFCDBF11E0A0E0B1E0ECE9FFE702C060
:1078800005900D92A230B107D9F712E0A2E0B1E065
:1078900001C01D92AD30B107E1F70E942D3D0C945F
:1078A000CC3F0C94003C982F959595959595959582
:1078B000905D8F708A307CF0282F295A8091C0000B
:1078C00085FFFCCF9093C6008091C00085FFFCCF60
:1078D0002093C6000895282F205DF0CF982F809127
:1078E000C00085FFFCCF9093C6000895EF92FF92F1
:1078F0000F931F93EE24FF2487018091C00087FD22
:1079000017C00894E11CF11C011D111D81E4E8164B
:1079100082E4F8068FE0080780E0180770F3E09132
:107920000401F091050109958091C00087FFE9CF1E
:107930008091C6001F910F91FF90EF9008950E94D3
:10794000763C982F8091C00085FFFCCF9093C600B5
:1079500091362CF490330CF09053892F089597555D
:10796000892F08951F930E949F3C182F0E949F3CCF
:107970001295107F810F1F9108951F93182F882350
:1079800021F00E94763C1150E1F71F9108951F935A
:10799000182F0E94763C803249F0809103018F5F5E
:1079A000809303018530C1F01F9108958091C0003C
:1079B00085FFFCCF84E18093C6008091C00085FFE5
:1079C000FCCF1093C6008091C00085FFFCCF80E102
:1079D0008093C6001F910895E0910401F091050184
:1079E00009951F9108950E94763C803241F0809164
:1079F00003018F5F80930301853081F008958091AA
:107A0000C00085FFFCCF84E18093C6008091C00058
:107A100085FFFCCF80E18093C6000895E0910401CA
:107A2000F09105010995089540E951E08823A1F0FE
:107A30002D9A28EE33E0FA013197F1F721503040CA
:107A4000D1F72D9828EE33E0FA013197F1F7215064
:107A50003040D1F7815061F708953F924F925F9285
:107A60006F927F928F929F92AF92BF92CF92DF924E
:107A7000EF92FF920F931F93CF93DF93000080E16B
:107A80008093C4001092C50088E18093C10086E015
:107A90008093C2005098589A259A81E00E94143D24
:107AA00024E1F22E9EE1E92E85E9D82E0FE0C02ECA
:107AB00010E1B12EAA24A394B1E49B2EA6E58A2E50
:107AC000F2E57F2EE0E26E2E79E4572E63E5462E36
:107AD00050E5352E0E94763C8033B1F18133B9F107
:107AE000803409F46FC0813409F476C0823409F41B
:107AF00085C0853409F488C0803531F1823521F1A3
:107B0000813511F1853509F485C0863509F48DC0BC
:107B1000843609F496C0843709F403C1853709F423
:107B200072C1863709F466C0809103018F5F80932C
:107B30000301853079F6E0910401F0910501099582
:107B40000E94763C803351F60E94F33CC3CF0E94E2
:107B5000763C803249F78091C00085FFFCCFF092DF
:107B6000C6008091C00085FFFCCF9092C600809136
:107B7000C00085FFFCCF8092C6008091C00085FFC9
:107B8000FCCF7092C6008091C00085FFFCCF609250
:107B9000C6008091C00085FFFCCF5092C600809146
:107BA000C00085FFFCCF4092C6008091C00085FFD9
:107BB000FCCF3092C6008091C00085FFFCCFB09210
:107BC000C60088CF0E94763C863808F4BDCF0E945C
:107BD000763C0E94F33C7ECF0E94763C803809F4CC
:107BE0009CC0813809F40BC1823809F43CC1883942
:107BF00009F48FC080E00E94C73C6CCF84E10E94F2
:107C0000BD3C0E94F33C66CF85E00E94BD3C0E94D3
:107C1000F33C60CF0E94763C809306010E94763C44
:107C2000809307010E94F33C55CF0E94763C80333D
:107C300009F41DC183E00E94BD3C80E00E94C73C66
:107C400049CF0E94763C809309020E94763C809343
:107C5000080280910C028E7F80930C020E94763C79
:107C6000853409F415C18091080290910902892B8D
:107C700089F000E010E00E94763CF801E85FFE4FDA
:107C800080830F5F1F4F80910802909109020817AF
:107C9000190788F30E94763C803209F045CF809125
:107CA0000C0280FF01C16091060170910701660F0F
:107CB000771F7093070160930601A0910802B091AD
:107CC00009021097C9F0E8E0F1E09B01AD014E0F09
:107CD0005F1FF999FECF32BD21BD819180BDFA9A17
:107CE000F99A2F5F3F4FE417F50799F76A0F7B1F4B
:107CF00070930701609306018091C00085FFFCCF5F
:107D0000F092C6008091C00085FFFCCFB092C60003
:107D1000E1CE83E00E94C73CDDCE82E00E94C73CFA
:107D2000D9CE0E94763C809309020E94763C8093D3
:107D300008028091060190910701880F991F909386
:107D40000701809306010E94763C853409F4A6C0A1
:107D500080910C028E7F80930C020E94763C8032D0
:107D600009F0B8CE8091C00085FFFCCFF092C6002C
:107D7000609108027091090261157105B9F140E046
:107D800050E080910C02A82FA170B82FB27011C0E2
:107D9000BB2309F45CC0E0910601F0910701319624
:107DA000F0930701E09306014F5F5F4F46175707B7
:107DB000E8F4AA2369F3F999FECF209106013091E6
:107DC000070132BD21BDF89A90B58091C00085FFB2
:107DD000FCCF9093C6002F5F3F4F30930701209355
:107DE00006014F5F5F4F4617570718F38091C00099
:107DF00085FDE5CE8091C00085FFF8CFE0CE81E023
:107E00000E94C73C67CE0E94763C803209F08CCE3F
:107E10008091C00085FFFCCFF092C6008091C00029
:107E200085FFFCCFE092C6008091C00085FFFCCFAB
:107E3000D092C6008091C00085FFFCCFC092C600E2
:107E40008091C00085FFFCCFB092C60043CEE09188
:107E50000601F091070194918091C00085FFFCCF4D
:107E60009093C6009CCF80E10E94C73C33CE0E9415
:107E7000763C0E94763C182F0E94763C112309F430
:107E800083C0113009F484C08FE00E94C73C22CE29
:107E900080910C02816080930C02E5CE80910C02EF
:107EA000816080930C0259CF809107018823880F4D
:107EB000880B8A2180930B02809106019091070123
:107EC000880F991F90930701809306018091080203
:107ED00080FF09C080910802909109020196909359
:107EE000090280930802F894F999FECF1127E091D6
:107EF0000601F0910701C8E0D1E08091080290915D
:107F00000902103091F40091570001700130D9F34B
:107F100003E000935700E89500915700017001308D
:107F2000D9F301E100935700E89509901990009169
:107F3000570001700130D9F301E000935700E89534
:107F40001395103498F011270091570001700130FB
:107F5000D9F305E000935700E895009157000170B0
:107F60000130D9F301E100935700E895329602976A
:107F700009F0C7CF103011F00296E5CF112480919F
:107F8000C00085FFB9CEBCCE8EE10E94C73CA2CD19
:0E7F900085E90E94C73C9ECDF894FFCF80008B
:00000001FF
